:020000040800F2
:100000004008002015020008FD060008E905000868
:10001000F9060008CD0400085B1400080000000089
:10002000000000000000000000000000CD0A0008F1
:10003000D10400080000000085070008FD0C00083E
:100040002F0200082F0200082F0200082F020008CC
:100050002F0200082F0200082F0200082F020008BC
:100060002F0200082F0200082F0200082F020008AC
:100070002F0200082F0200082F0200082F0200089C
:100080002F0200082F0200082F0200082F0200088C
:100090002F0200082F0200082F0200082F0200087C
:1000A0002F0200082F0200082F0200082F0200086C
:1000B000610D0008F90D00082F0200082F0200084A
:1000C0002F0200082F0200082F0200082F0200084C
:1000D0002F020008711000082F02000845110008C7
:1000E0002F0200082F0200082F0200082F0200082C
:1000F0002F0200082F0200082F0200082F0200081C
:100100002F0200082F0200082F0200082F0200080B
:100110002F0200082F0200082F0200082F020008FB
:100120002F0200082F0200082F0200082F020008EB
:1001300000F002F800F05FF80AA090E8000C82449A
:100140008344AAF10107DA4501D100F054F8AFF277
:10015000090EBAE80F0013F0010F18BFFB1A43F0A5
:100160000103184704270000242700000A444FF029
:10017000000C10F8013B13F0070408BF10F8014B06
:100180001D1108BF10F8015B641E05D010F8016B4B
:10019000641E01F8016BF9D113F0080F1EBF10F8AF
:1001A000014BAD1C0C1B09D16D1E58BF01F801CBD2
:1001B000FAD505E014F8016B01F8016B6D1EF9D555
:1001C0009142D6D37047000000230024002500266A
:1001D000103A28BF78C1FBD8520728BF30C148BFAA
:1001E0000B607047642900F07780002070471FB5CE
:1001F0001FBD10B510BD00F037F91146FFF7F7FF2E
:1002000001F0FAF900F055F903B4FFF7F2FF03BC6F
:1002100001F0BEF90948804709480047FEE7FEE7BC
:10022000FEE7FEE7FEE7FEE7FEE7FEE7FEE7FEE7A6
:1002300004480549054A064B70470000010D0008B7
:100240003101000840020020400800204004002046
:1002500040040020704700000FB4044910B503AA01
:10026000029800F0D3F810BC5DF814FB7401002074
:100270002DE9F0410E460446002020622046E16848
:10028000884730B3252805D0D4E901219047206A5A
:10029000401CF2E7E168204600278847050018D097
:1002A000A5F14100192802D820354FF400673246E5
:1002B000294620462760FFF795FF40B1012804D06A
:1002C000F61D26F007060836D8E7361DD6E728467D
:1002D000DAE7206ABDE8F0812DE9F0410646002406
:1002E00010687529314616A510D0AFF3008000289C
:1002F00002DA404213A507E031688A0701D512A54A
:1003000002E0490704D511A5012401E0AFF3008004
:1003100000210A2206F1240709E0B0FBF2FCB0FB41
:10032000F2F302FB1C00303078541846491C0028B8
:10033000F3D123462A463046BDE8F04100F00CB820
:10034000000000002D0000002B0000002000000035
:1003500070477047704770472DE9F0470D46994642
:100360009246044600F124080168880604D5E06935
:1003700021F01001216000E00120A84201DD471BAF
:1003800000E00027A1697A1902EB0900081AA061B0
:100390002078C00602D42046AFF30080002608E093
:1003A000D4E901211AF806009047206A401C761C07
:1003B00020624E45F4DB2078C0060AD52046AFF314
:1003C000008006E0D4E9012130209047206A401CDB
:1003D0002062381EA7F10107F4DC07E0D4E901210F
:1003E00018F805009047206A401C2062281EA5F1DD
:1003F0000105F3DC2046AFF300802078000602D52B
:100400000220BDE8F0870120FBE70000074B70B534
:100410000D467B4400F011F80446284600F020F811
:1004200010B14FF0FF3070BD204670BDC711000005
:1004300001694A1C02610878704700B58FB0CDE9A8
:1004400001310021059105497944CDE90310114698
:100450006846FFF70DFF0FB000BD0000E5FFFFFF8E
:10046000007B00F080007047754600F02BF8AE4628
:1004700005006946534620F00700854618B020B5B0
:10048000FFF7D6FEBDE820404FF000064FF0000712
:100490004FF000084FF0000B21F00701AC46ACE82C
:1004A000C009ACE8C009ACE8C009ACE8C0098D4699
:1004B000704710B50446AFF300802046BDE81040F9
:1004C000FFF7A2BE00487047DC01002000BFFEE736
:1004D00070472DE9F0410246002500260020002348
:1004E0000024002791F803C00CF00F0591F803C019
:1004F0000CF0100CBCF1000F03D091F802C04CEAD4
:10050000050591F800C0BCF1000F31D0146800203F
:100510002BE04FF0010C0CFA00F3B1F800C00CEA2C
:1005200003069E4220D183004FF00F0C0CFA03F714
:10053000BC4305FA03FC4CEA040491F803C0BCF187
:10054000280F06D14FF0010C0CFA00FCC2F814C0C1
:100550000AE091F803C0BCF1480F05D14FF0010C3F
:100560000CFA00FCC2F810C0401C0828D1D314605B
:10057000B1F800C0BCF1FF0F34DD546800202EE05C
:1005800000F1080C4FF0010808FA0CF3B1F800C0B4
:100590000CEA03069E4221D183004FF00F0C0CFAA7
:1005A00003F7BC4305FA03FC4CEA040491F803C0CA
:1005B000BCF1280F05D100F1080C08FA0CF8C2F8BC
:1005C000148091F803C0BCF1480F07D100F1080C6A
:1005D0004FF0010808FA0CF8C2F81080401C0828F7
:1005E000CED35460BDE8F08100BFFEE708B542F20B
:1005F000CF01632000F0D2FB00F04CF8012108206D
:1006000000F0DAF94FF49070ADF8000010208DF88A
:10061000030003208DF8020069461B48FFF759FFCD
:100620000121102000F0C8F94FF4E050ADF80000AF
:1006300010208DF8030003208DF80200694613484E
:10064000FFF747FF0121202000F0B6F90420ADF8A4
:10065000000010208DF8030003208DF80200694689
:100660000B48FFF736FF0121082000F0A5F94FF4F1
:100670004060ADF8000048208DF80300694602484C
:10068000FFF727FF08BD0000000C014000100140EB
:100690000014014008B51648C06940F00200144932
:1006A000C86142F20F70134908804720091F088073
:1006B00010482038008840F001000E492039088099
:1006C0000C482C38008840F001000A492C39088079
:1006D0001D208DF8000000208DF8010003208DF80A
:1006E000020001208DF80300684600F009F808BDFB
:1006F000001002402C04004000BFFEE770470000DD
:1007000070B5002100230F22C47804B3154C24686F
:1007100004F4E064C4F5E064210AC1F10403CA40B2
:10072000447804FA03F184781440214309010E4C03
:100730000678A155047804F01F050124AC40057823
:100740006D11AD0005F1E025C5F8004109E0047820
:1007500004F01F050124AC40044D0678761145F8DD
:10076000264070BD0CED00E000E400E080E100E018
:1007700002490143024A1160704700000000FA0577
:100780000CED00E0704700002DE9FC5F6448006854
:1007900001F01EFB80460022624B01F0C1F90646C3
:1007A0000022614B01F02CFB0446604A604B01F0D3
:1007B000B7F9824600225F4B01F00AF9CDE900014A
:1007C00001F0D4F85C49086000F04AFE5A4800681D
:1007D00001F056FE594948805948006801F0F8FA7E
:1007E0008046584A584B01F00BFB06460022574BF7
:1007F00001F004FC044601F0B9F85549086000F026
:100800007BFE5348006801F03BFE4C49888051490B
:10081000096801EB810202EBC10140F2DC52501A7F
:1008200001F04EFE4C49086000F040FE4A48006866
:1008300001F026FE49490880464800680A280ADD7A
:100840004448008800EB80004FF4FA61A1EB80007F
:100850003A49C88016E03F48006805280EDD3D484B
:1008600000680A280ADC3B48008800EB80004FF44F
:10087000FA61A1EB40003149C88003E04FF4FA600F
:100880002E49C880334800680A280ADD31480088AC
:1008900000EB800101EBC00000F6980027490881B9
:1008A00003E040F69800254908812D492A48006850
:1008B00001F032FE0CD22748008800EB400101EB2A
:1008C000C0004FF4FA61A1EB40001C49488109E0E7
:1008D00021480168234801F087FC044601F0D0FD5F
:1008E000164948812048006801F072FA80461F4A84
:1008F0001F4B01F085FA06460022144B01F068F800
:10090000044601F033F81B49086000F01BFE19484B
:10091000006801F0B5FD09498881BDE8FC9F000031
:100920007C010020008056400000B040D7A3703DFD
:100930000AD70D4000008940980100205001002096
:1009400080010020B81E85EB51382640007097408A
:1009500090010020840100208C0100203C08004010
:100960000080BB440000FA4388010020A4703D0AC7
:10097000D72326409401002029B1064AD2690243B8
:10098000044BDA6104E0034AD2698243014BDA6125
:10099000704700000010024029B1064A1269024364
:1009A000044B1A6104E0034A12698243014B1A6145
:1009B000704700000010024029B1064A92690243C4
:1009C000044B9A6104E0034A92698243014B9A61A5
:1009D000704700000010024029B1064AD268024365
:1009E000044BDA6004E0034AD2688243014BDA60C8
:1009F000704700000010024030B5002100220024A2
:100A000000232D4D6D6805F00C0121B1042905D09E
:100A1000082923D105E0294D056022E0274D056016
:100A20001FE0254D6D6805F47012234D6D6805F4C7
:100A30008034022505EB92421CB9214D55430560D7
:100A40000BE01D4D6D6805F400351DB11C4D55437F
:100A5000056002E0194D5543056002E0174D056041
:100A600000BF00BF144D6D6805F0F0010909154D78
:100A70006B5C0568DD4045600F4D6D6805F4E06115
:100A8000090A104D6B5C4568DD4085600A4D6D6854
:100A900005F46051C90A0B4D6B5C4568DD40C560CB
:100AA000054D6D6805F44041890B074D6B5CC568C9
:100AB000B5FBF3F5056130BD0010024000127A006D
:100AC00000093D00A8010020B80100207047000087
:100AD00070B53F480078002848D000203C49087095
:100AE0003C480088142190FBF1F03B490880002429
:100AF00037E03A4830F81400394931F81410884288
:100B000013DD364931F81410354A32F81420881AAA
:100B100001F0D6FC334941F82400084650F824007F
:100B200080F0004041F824000BE02D4931F814100A
:100B30002A4A32F81420881A01F0C2FC294941F8E7
:100B400024002548008801F0D3FC0546254951F8CA
:100B50002400294601F0B6FB224941F82400601C1C
:100B6000C4B2082CC5DB01201F4908701E4800785C
:100B700060B319480088401E17490880002423E00C
:100B80001548008848B9154830F81400144921F870
:100B9000140000201449087014E00F48008801F088
:100BA000A7FC06460F4850F82410304601F0E8FC38
:100BB000054601F049FC094931F814100844084978
:100BC00021F81400601CC4B2082CD9DB70BD0000F1
:100BD0006001002062010020680100205001002017
:100BE00040010020BC0100206A01002010B500F087
:100BF00001F810BD0CB5002001900090334800684A
:100C000040F480303149086000BF3048006800F48B
:100C1000003000900198401C0190009818B901988C
:100C2000B0F5A06FF1D12948006800F4003010B190
:100C30000120009001E0002000900098012843D19D
:100C40002348006840F01000214908600846006809
:100C500020F0030008600846006840F002000860C9
:100C60001A48406819494860084640684860084684
:100C7000406840F4806048600846406820F47C107A
:100C800048600846406840F4E8104860084600683C
:100C900040F08070086000BF0C48006800F00070F1
:100CA0000028F9D00948406820F00300074948604F
:100CB0000846406840F00200486000BF03484068B2
:100CC00000F00C000828F9D10CBD00000010024013
:100CD00000200240042808D14FF0E021096941F0CA
:100CE00004014FF0E022116107E04FF0E0210969B3
:100CF00021F004014FF0E0221161704770470000BD
:100D000010B51348006840F001001149086008461A
:100D10004068104908400E494860084600680E497E
:100D200008400B4908600846006820F480200860ED
:100D30000846406820F4FE0048604FF41F008860B9
:100D4000FFF754FF4FF000600449086010BD000039
:100D5000001002400000FFF8FFFFF6FE08ED00E083
:100D60004FF08040008A00F0010048B10948007847
:100D7000401C0849087008480068401C0649086083
:100D80004FF08040008A20F001004FF0804108823F
:100D9000704700006E010020640100207FB5054609
:100DA0000C4601210846FFF7E7FDADF80850ADF805
:100DB00004400020ADF80A00ADF8060001A94FF08C
:100DC000804000F0FDF801221146900700F0EEF897
:100DD0001C208DF8000000208DF8010003208DF804
:100DE000020001208DF803006846FFF789FC01210D
:100DF000880700F0CFF87FBD00B56048008800F09C
:100E00000100002870D05E48008811280ED2DFE86B
:100E100000F0A7090E171F2B34414A575F6C7480EE
:100E200089969B005749088800F01CF998E05549BD
:100E3000098840F6C412511A88B200F013F98FE005
:100E40000120514908604F49488800F00BF987E0BC
:100E500000204D4908604B49498840F6C412511A98
:100E600088B200F0FFF87BE001204749091D0860C7
:100E70004449888800F0F6F872E000204249091DD4
:100E800008604049898840F6C412511A88B200F0BF
:100E9000E9F865E001203C49083108603949C88813
:100EA00000F0E0F85CE0002037490831086035497F
:100EB000C98840F6C412511A88B200F0D3F84FE046
:100EC0000120324908602F49088900F0CBF847E03B
:100ED00000202E4908602B49098940F6C412511A96
:100EE00088B200F0BFF83BE040E0012028490860EC
:100EF0002449488900F0B6F832E00020244908600F
:100F00002049498940F6C412511A88B200F0AAF863
:100F100026E001201E490C3108601A49888900F03A
:100F2000A1F81DE000201A490C3108601549898993
:100F300040F6C412511A88B200F094F810E011493A
:100F4000C88900F08FF80BE00E49C98940F6C41239
:100F5000511A88B200F086F800200949088000BFC5
:100F600000BF07480088401C0549088003480088E6
:100F700020F001000149088000BD0000100400407D
:100F80006C01002040010020A801224288812242F9
:100F90009481214221B1028842F00102028004E0E2
:100FA00002884FF6FE731A40028070471AB1838997
:100FB0000B43838102E083898B4383817047000068
:100FC000002202881D4B98420ED01D4B98420BD038
:100FD000B0F1804F08D01B4B984205D01A4B984275
:100FE00002D01A4B984204D14FF68F731A404B88A7
:100FF0001A43174B984207D0164B984204D04FF62D
:10100000FF431A40CB881A4302808B8883850B8864
:1010100003850A4B98420BD0094B984208D00E4BDF
:10102000984205D00D4B984202D00D4B984201D109
:101030000B7A03860123838270470000002C014055
:10104000003401400004004000080040000C004053
:1010500000100040001400400040014000440140E6
:1010600000480140411C014A118070472C04004097
:1010700010B540F22551284800F02EF900284AD03A
:10108000254800F0E5F92549087008460078EE2863
:101090002CD100202249087022490870224800788B
:1010A00022490860204880781F49497800EB0120D8
:1010B000B4381F4908601C4800791B49C97800EB07
:1010C0000120B4381B4908601748807916494979CE
:1010D00000EB0120B438184908601848007801284E
:1010E00004D1FFF751FB0120154908700C48007826
:1010F000012809D1094801780A4802780078401C83
:10110000084B18700848815404480078AA2802D176
:1011100001200349087010BD003801409C010020E7
:101120009D010020A70100209F0100207C010020DC
:101130008001002084010020880100209E01002001
:101140006001002010B540F22551294800F0C4F894
:1011500000284BD0264800F07BF926490870084645
:101160000078EE282DD1002023490870234908700B
:10117000234800782349086021488078204949782D
:1011800000EB0120B438204908601D4800791C4953
:10119000C97800EB0120B4381C49086018488079F0
:1011A0001749497900EB0120B43819490860FFF765
:1011B000EBFA0120174908701348016816A0FFF7E1
:1011C0004BF80D480078012809D10A4801780B48EE
:1011D00002780078401C094B187009488154054872
:1011E0000078AA2802D101200349087010BD000030
:1011F000004800409C0100209D010020A601002025
:101200009F0100207C01002080010020840100203B
:101210008801002060010020777577757775256457
:101220000000000021B1828942F40052828104E072
:1012300082894DF6FF731A408281704710B50446CB
:101240002048844209D101218803FFF7C5FB002112
:101250004FF48040FFF7C0FB32E01B48844209D1C5
:1012600001214804FFF798FB00214FF40030FFF7FD
:1012700093FB25E01548844209D101218804FFF73A
:101280008BFB00214FF48020FFF786FB18E010480D
:10129000844209D10121C804FFF77EFB00214FF4ED
:1012A0000020FFF779FB0BE00A48844208D10121B6
:1012B0000805FFF771FB00214FF48010FFF76CFB6E
:1012C00010BD0000003801400044004000480040CC
:1012D000004C00400050004070B50246002400233E
:1012E0000025002040F66A16B14200D100BFC1F3CC
:1012F000421501F01F03012606FA03F3012D02D166
:101300009689334006E0022D02D1168A334001E06F
:10131000968A33400C12012606FA04F416883440EB
:1013200013B10CB1012000E0002070BDF0B5034600
:10133000002400260025002040F66A17B94200D19B
:1013400000BF1846C1F3421401F01F06012707FA37
:1013500006F5012C01D10C3004E0022C01D1103033
:1013600000E014301AB107682F43076002E00768F5
:10137000AF430760F0BD00002DE9F04786B0054699
:101380000E460024A24600BFA1460027B08900B146
:1013900000BF2F462C8A4CF6FF700440F0880443AF
:1013A0002C82AC894EF6F3100440B0883189084392
:1013B000718908430443AC81AC8A4FF6FF40044076
:1013C000B0890443AC8201A8FFF716FB1F4887428F
:1013D00002D1DDF810A001E0DDF80CA0A88900F42E
:1013E000004040B10AEBCA0000EB0A103168490026
:1013F000B0FBF1F807E00AEBCA0000EB0A10316815
:101400008900B0FBF1F86420B8FBF0F0040120097A
:10141000642101FB1089A88900F4004040B132200A
:1014200000EBC900B0FBF1F000F00700044308E056
:10143000322000EB09106421B0FBF1F000F00F0046
:1014400004432C8106B0BDE8F0870000003801405D
:1014500001468888C0F30800704700BFFEE700001F
:1014600070B540F6C4144FF49665204601F028F894
:1014700006460D480168304601F04EF804D2204679
:1014800001F01EF808490860284601F019F80646E0
:1014900005480168304601F03FF904D2284601F0C2
:1014A0000FF80149086070BD9801002070B540F642
:1014B000C4144FF4FA75204601F002F806460D48B0
:1014C0000168304601F028F804D2204600F0F8FF09
:1014D00008490860284600F0F3FF06460548016801
:1014E000304601F019F904D2284600F0E9FF01491D
:1014F000086070BD8C01002070B540F6C4144FF434
:10150000FA75204600F0DCFF06460D4801683046BB
:1015100001F002F804D2204600F0D2FF084908602A
:10152000284600F0CDFF064605480168304601F028
:10153000F3F804D2284600F0C3FF0149086070BDEB
:101540009001002070B540F6C4144FF4FA7520469F
:1015500000F0B6FF06460D480168304600F0DCFF9B
:1015600004D2204600F0ACFF08490860284600F08D
:10157000A7FF064605480168304601F0CDF804D2C1
:10158000284600F09DFF0149086070BD94010020CD
:10159000014600BF7047000010B56FF00400FFF770
:1015A00099FB0A4800680A49B0FBF1F00949087044
:1015B0000846007800EB4001C1EBC0104FF6FF7108
:1015C00001EAC0000449088010BD00002C01002081
:1015D00000127A00700100207201002000BF054A4D
:1015E000128802F04002002AF9D0C2B2014B1B1D42
:1015F0001A807047003801404FF4A060FFF7B8F838
:10160000FFF7CAFF4FF4165000F05CF9FEF7EEFF4B
:1016100000209B4908809B4908809B4908809B4982
:1016200008802BE19A480068012868D19848001D7D
:101630000068002863D1974908709349088093494E
:10164000088095488E49098800EB0110408893492D
:10165000488091488A49098800EB011080888F49A9
:1016600088808D488649098800EB0110C0888B4925
:10167000C88089488249098800EB011000898749A0
:10168000088185487E49098800EB0110408983491B
:10169000488181487A49098800EB011080897F4997
:1016A000888101207E4908707E4800680A21B0FBCD
:1016B000F1F201FB120030B9FFF70AFA7148008815
:1016C000401C704908806F48008840F6B83190FB94
:1016D000F1F201FB12000028A3D16A480088401CE7
:1016E0006849088066480088082804DA6448008849
:1016F000401C634908806CA0FEF7AEFDBEE0644864
:101700000068012869D16248001D0068012864D181
:101710000020604908705A4908805A490880654885
:101720005949098800EB011040885C4948806148AC
:101730005549098800EB01108088584988805D4828
:101740005149098800EB0110C0885449C8805948A4
:101750004D49098800EB011000895049088155481E
:101760004949098800EB011040894C49488151489A
:101770004549098800EB011080894849888101208A
:1017800047490870474800680A21B0FBF1F201FBA5
:10179000120030B9FFF79CF93C480088401C3B49D7
:1017A00008803A48008840F6B83190FBF1F201FB1E
:1017B0001200002862D135480088401C3349088057
:1017C00031480088082804DA2F480088401C2E4938
:1017D000088039A0FEF740FD50E02D480068D8B9D8
:1017E0002B48001D0068012816D1002024490880DC
:1017F000244908802449088024490880012025497B
:101800000870284800680521B0FBF1F201FB1200C6
:10181000A0BBFFF75DF931E01D48006870BB1C48B4
:10182000001D006850BB00201A4908701449088048
:101830001449088014490880144908804FF44870FE
:101840001649488040F2DC5088804FF4FA60C88026
:1018500040F69800088140F26C70488140F2DC50FC
:10186000888101200E4908700E4800680A21B0FBEB
:10187000F1F201FB120008B9FFF72AF9D2E60000E5
:1018800002000020040000200600002008000020C4
:10189000288121429E0100200A00002050010020E2
:1018A0006001002064010020CDEAB3C9B6AFD7F7CC
:1018B000310D0A009A000020CDEAB3C9B6AFD7F7C0
:1018C000320D0A0010B586B00446012144F204002E
:1018D000FFF772F82348FFF7B1FC4FF40070ADF842
:1018E000140003208DF8160018208DF8170005A9A4
:1018F0001D48FEF7EEFD4FF48060ADF814000420A3
:101900008DF8170005A91848FEF7E3FD25208DF88E
:10191000000003208DF801008DF8020001208DF8F1
:1019200003006846FEF7ECFE01940020ADF80800C5
:10193000ADF80A00ADF80C00ADF810000C20ADF8C1
:101940000E0001A90748FFF717FD012240F22551BB
:101950000448FFF7EBFC01210248FFF763FC06B0E7
:1019600010BD0000003801400008014021F0004295
:10197000A2F16052B2F5801F01F0004328BFD2F1FE
:101980007F6C0BD95FEA001C43EAC20242EB507045
:1019900018BF704728BF20F001007047B2F5801FC4
:1019A000BCBF184670474FEA410C1CF5001F02D21D
:1019B000084600F0ACBE70B500F0CCFA000000891B
:1019C000FFF7F6BF4FF00040A0F580007047000021
:1019D00010B591EA030F48BF83F0004300F1228362
:1019E000841A71EB030C05D2121943EB0C03001B94
:1019F00061EB0C01DFF824E14FEA1154A4EB135C16
:101A00001EEA430F18BF9EEA445F73D023EA0E0319
:101A1000DCF1200E21EA045143F4801332D322FA80
:101A20000CFE10EB0E0023FA0CFE41EB0E01CCF184
:101A3000200E03FA0EFE10EB0E0051F10001B1F57D
:101A4000801FCCF1200E32D201EB045112FA0EF2BB
:101A5000BDE8104058BF7047401C38BF5FEA4202E3
:101A600018BF7047002814BF20F0010041F10001A9
:101A70004FEA410313F5001F38BF7047A1F1C04181
:101A800000F0B6BA012A43EB0302ACF1200CDCF102
:101A90001F0E32BF4FF0000E23FA0CF310EB0300C1
:101AA00041EB0451B4EB115FD0D0A1EB045101F52F
:101AB000801149085FEA300001EB04510ED350F168
:101AC000000038BF12FA0EFE08D1BDE81040C9E789
:101AD000401C38BF5FEA4202CAD1C3E7BDE81040EC
:101AE0004FEA410313F5001F38BF7047A1F1C04111
:101AF00000F07EBA9EEA445F08D011EA5E0FBDE8AE
:101B0000104004BF01F0004100207047BDE81040C4
:101B100070B500F01FFA00BF64FBBE3E0000E0FF9E
:101B20002DE9C04130B4DFF8A0C23CEA111418BF5F
:101B30003CEA131400F0EC8081EA03051CEA11145E
:101B400044EAD57418BF1CEA131500F0C780A4EB53
:101B500005044FF0004545EAC12145EAC32341EAA7
:101B6000505143EA525304F17F74994204F5003412
:101B70004FEAC0204FEAC22208BF904200F09C808A
:101B80004FEA13650FF24016765D4FEA134506FBE8
:101B900005F7C7F1807706FB07F74FEAD737A7FBB2
:101BA00003687642C8F58038A7FB06CE38BFA8F197
:101BB000010807FB08E64FF0000EA6FB028CE6FBCF
:101BC00003CEDCF1000CCEF1004E38BFAEF1010EB9
:101BD000A6FB0C584FF000074FF00005E6FB0E8700
:101BE000A1FB08C6A0FB07CE16EB0E0645F10005CB
:101BF000E1FB076515F1E04E7EBFA4F580345FEA96
:101C000046066D4116F1800745F100054FEA17279A
:101C10004FEA066647EA0567A6F1DE46B6F1805F41
:101C20004FEA15251FD9384624F0010C05EBC47185
:101C3000BCF1FE6F01EB0C1102D8F0BCBDE80081D5
:101C400024425CBF01F5801E9EEAC47F02D4F0BC32
:101C5000BDE80081244238D4F0BCA1F1C041BDE808
:101C6000004100F0C5B94FEAD22242EA43524FEA9E
:101C7000D323A7FB02864FEAD02040EA415007FB5E
:101C800003661EEA0E0F4FEAD12105FB026658BF1C
:101C9000A6EB0056B6EB00564FEA520E4EEAC37E54
:101CA00018EB0E0E56EB530EBDD518EB02085E4135
:101CB0007F1C55F10005B6E74FF480154FF0000783
:101CC0004FF000064FF00008ADE7F0BC4FF0000009
:101CD00001F1C04101F00041BDE8008111EA0C1F93
:101CE0000CEA131500D00CE013EA0C1F00F025805D
:101CF0004FF00000F0BC81EA030101F00041BDE8B3
:101D00000081F0BCBDE8004181EA030100F070B938
:101D1000F0BCBDE8004170B500F01CF9097EFC3E46
:101D200000F007B881EA03014FF0000001F0004124
:101D3000704781EA030100F05BB9F0BCBDE80041E7
:101D40004FF0000021497047FFFDFBF9F7F5F4F271
:101D5000F0EEEDEBE9E8E6E4E3E1E0DEDDDBDAD846
:101D6000D7D5D4D3D1D0CFCDCCCBCAC8C7C6C5C4A4
:101D7000C2C1C0BFBEBDBCBBBAB9B8B7B6B5B4B3BB
:101D8000B2B1B0AFAEADACABAAA9A8A8A7A6A5A4A6
:101D9000A3A3A2A1A09F9F9E9D9C9C9B9A9999986A
:101DA0009797969595949393929191908F8F8E8E0D
:101DB0008D8C8C8B8B8A898988888787868585849A
:101DC00084838382828181800000FF070000F87F86
:101DD00010F0004248BF4042B0FA80F310FA03F11D
:101DE0000AD0C3F11D0303F580634FEA415002EBB3
:101DF000035202EBD12170474FF000007047000002
:101E0000DFF848C170B51CEA111E1EBF1CEA13158D
:101E10009EEA0C0F95EA0C0F00F06F8081EA030434
:101E200023EA4C134EEAD47E21EA4C1141F480118E
:101E300043F48013AE44A1FB024CA0FB0365AEF15A
:101E40007F7E361955EB0C05A1FB034C4CF10003CA
:101E5000A0FB021C16EB0C06654153F1000309427E
:101E600018BF46F0010613F4007F0BD14FEA03318F
:101E70004FEA0530340341EA155140EA16506FF03D
:101E800003020AE04FEAC3214FEAC520F40241EA07
:101E9000555140EA56506FF0020202EB2E4201EB20
:101EA000025585EACE710AD05FEA440C18BF24F0CF
:101EB000004450F1000041F1000120EAD47040F2EA
:101EC000FE7C624500D270BDA84214BF4FF0804432
:101ED0004FF04044002E08BF0024BEF1806FA8BF21
:101EE000A1F1C041BDE8704080F282804FF0000057
:101EF00001F1C04101F0004170479EEA0C0F0CEA6D
:101F0000131518BF95EA0C0F06D04FF0000081EAB8
:101F1000030E0EF0004170BD00F01CF88900013E78
:101F200000F007B800F009B84FEA430C5FEA5C5CC8
:101F300008D081EA030100F05BB84FEA410C5FEA88
:101F40005C5CF6D14FF00000014970470000FF07CC
:101F50000000F87F0EF1020E2EF0030E5EF8046B07
:101F6000364205D4012A43EB030515F5001F12D8AC
:101F7000012841EB010C1CF5001F0CD80ED14FEAD3
:101F8000D17C15F5001F0CEB4C0C0CF1020C08BFBA
:101F90004CEBD37C04E04FF0080C01E04FEAD37C1B
:101FA0000CEB4C0526FA05F606F00706B6F1040C14
:101FB00006D20EEB860CBDE870404CF0010C604779
:101FC000DFE80CF0090B02024FF000414FF0000077
:101FD000A1F5002170BD19461046012851EB0104FE
:101FE00018BFD4F5001484BF002001F0004170BD7B
:101FF0000808A0F500114FEA3101704791EA030F7C
:1020000010B581F000413FF5EBAC83F0004300F0E8
:1020100009B8000010B591EA030F48BF83F00043F0
:102020003FF5DEAC841A71EB030C07D212198CF069
:10203000004C43EB0C03001B61EB0C01DFF8A4E147
:102040004FEA1154A4EB135C1EEA430F18BF9EEA3B
:10205000445F00F0B08023EA6E03524221EA04514B
:10206000C3EB6E0338BF5B1EDCF1200E25D322FAD2
:102070000CFE10EB0E0043FA0CFE41EB0E01CCF10E
:10208000200E03FA0EFE10EB0E0051F10001CCF110
:10209000200E29D412FA0EF201EB0451BDE81040D3
:1020A00058BF7047401C1CBFB2F1004F704700285A
:1020B0000CBF491C20F00100704712EB020E43EBED
:1020C000030218BF4FF0010E4EEA4202ACF1200CA1
:1020D000DCF11E0E54D943FA0CFE10EB0E0051F148
:1020E000FF31CCF11E0ED5D50EF1010E12FA0EFE07
:1020F000404141EB010101EB445C5FEA5C5C10D9BB
:1021000010EBDE7001EB045138BFBEF1004FBDE8AB
:10211000104018BF704700280CBF491C20F0010078
:10212000704730D24FEAD42C11F5001124F400642A
:102130001BD0B1FA81F20B3AA41AA41ED2F12003EB
:10214000914030FA03F31943904001EBCC71002C1D
:1021500001EB0451BDE81040A8BF704701F1C04138
:102160004FF0000001F000417047B0FA80F310FA20
:1021700003F100D110BDE41A173C4805C90AE4E791
:1021800001EB045110BD491001EB0451BDE81040B2
:102190004FEA300002E04FF0000170474A0008BFEC
:1021A0000042F8D0B2F5001F28BF704701F000418F
:1021B0004FF0000070479EEA445F07D011EA5E0FBF
:1021C000BDE8104004BF002100207047BDE810406A
:1021D00070B5FFF7BFFE00BF40DFF63E83F0004161
:1021E000104670470000E0FF90EA010F48BF81F001
:1021F000004100F1CA82421A3CBF801A89184FEA96
:10220000D0524FF07F4C1CEA410FA2EBD15318BFC4
:102210009CEA026F00F03B804FF0004C4CEA00203B
:102220004CEA012121FA03FC10EB0C0C1ED202F146
:10223000FF325FEA1C2040EBC25038BF70471CF0F1
:102240007F0F4FEA400C18BFBCF17F4F38BF70477B
:10225000C3F12003994008BF20F00100BCF17F4F7B
:1022600038BF7047A0F1C04000F051BA4FEA3C00BF
:10227000000A40EBC25028BF1CF0FF0F4FEA400C91
:10228000E6D018BFBCF17F4F38BF7047EAE79CEA41
:10229000026F05D010EA5C0F08BF00F000407047E5
:1022A00010B500F0EEF900BF64FBBE3E401058BF11
:1022B000C0F14040491058BFC1F140418142EFF3A5
:1022C000008070474FF47F0C1CEAD0121EBF1CEA3E
:1022D000D11392EA0C0F93EA0C0F00F0858090EA7C
:1022E000010F48BF42F4807240F4000C41F400003A
:1022F0002CF07F4120F07F4000B58142A2EB030229
:102300000FF2081CACEB504EC0F100009EF800E04C
:102310004FEA4E0E00FB0EFC38BF49004FEA2C1C62
:1023200002F5FA020CFB0EF34FEACE1E4FEA112C17
:102330004FEAC1210EEB635E42EB22420EFB0CFC26
:102340004FEA1C5300FB03114FEA112C4FEA0131F5
:102350000EFB0CFC4FEADC4C00FB0C11C14228BF09
:1023600009184CEB03335DF804EB10EB410143EB30
:10237000C250B2F57C0F38BF704729D512F0F00F6C
:102380001CBF00F1C04000F0004070470081828314
:102390008485868788898B8C8D8E8F919293959674
:1023A00097999A9C9D9FA0A2A3A5A7A8AAACAEB0FE
:1023B000B2B3B5B7B9BCBEC0C2C5C7C9CCCED1D403
:1023C000D7D9DCDFE2E6E9ECF0F3F7FAFE00000033
:1023D0004FEA400C0CF1807CBCF17E4F28BF704767
:1023E000B0F1C04000F093B990EA010F0CEAD113AC
:1023F00048BF42F48072624538BF634507D213F488
:102400007F0F16D080EA010000F00040704710B541
:1024100000F037F9097EFC3E00F005B880EA0100C3
:1024200000F00040704780EA010000F0004000F03A
:102430006EB912F47F0F04BF0248704780EA0100B2
:1024400000F065B90000C07F41000B0ED3F19E0281
:1024500008D950F400034FEA032323FA02F048BFDF
:102460004042704710B500F00CF900BF499224803B
:10247000002070476FF0004282EA200070470000A1
:10248000C10DD1F19E0206DB4FEA002343F0004369
:1024900023FA02F07047004207D54FEA4001B1F13C
:1024A000FE4F02D24FF00000704710B500F0E9F87F
:1024B00049922480002070476FEA20007047000096
:1024C00010F0004148BF4042B0FA80F310FA03F226
:1024D000C3F19D030BD051EAC35101EB1220530607
:1024E00038BF704700F1010008BF20F001007047BD
:1024F000B0FA80F310FA03F2C3F19D030AD0D905B4
:1025000001EB1220530638BF704700F1010008BFED
:1025100020F001007047000050EA010C00F1138028
:102520001CF5000F58BFBCF5000F01D4884270475E
:1025300007D710F5000F58BF11F5000F15D48842CA
:102540007047894270471CF5000F04D5BCF5000F99
:10255000F7D5814270474FF0807C1CEB400F38BFAD
:102560001CEB410F01D28142704710B500F089F891
:10257000922449004FF000504FF08051FFF796BE73
:102580004FF47F0C1CEAD0121EBF1CEAD11392EA52
:102590000C0F93EA0C0F00F0478090EA010F48BF40
:1025A00042F480724FF0004C4CEA00204CEA0121CA
:1025B00002EB0302A0FB0113A2F50002002918BFE1
:1025C00043F001035B0028BF4FEA330342EB224292
:1025D0005FEA132C4CEBC2502EBFBCEB436FB2F53D
:1025E0007C0F70474FEA036CBCF1004F08BF20F02E
:1025F0000100B2F57C0F38BF70470BD582F0FF02A7
:1026000012F5803FC8BF704700F1C040D8BF00F04E
:102610000040704700F5000C5FEA4C0C48BF704763
:10262000B0F1C04000F073B890EA010F0CEAD1138A
:1026300048BF42F48072624538BF634504D280EAE5
:10264000010000F00040704710B500F01AF800BF1C
:102650008900013E00F007B800F009B85FEA410CBC
:102660005FEA1C6C08D080EA010000F050B85FEA15
:10267000400C5FEA1C6CF6D14FF00040A0F58000E2
:1026800070470EF1020E2EF0030E5EF8044B24424A
:1026900004D44FEA4102B2F17F4F11D84FEA400310
:1026A000B3F17F4F0CD80ED14FEAD07CB2F17F4FFF
:1026B0000CEB4C0C0CF1020C08BF4CEBD17C04E091
:1026C0004FF0080C01E04FEAD17C0CEB4C0324FAEC
:1026D00003F404F00704B4F1040C06D20EEB840CEE
:1026E000BDE810404CF0010C6047DFE80CF0070833
:1026F00002024FF00040A0F5800010BD08464200E5
:1027000018BFD2F1807288BF00F0004010BDFF21D9
:1027100041EAD050C005704751EA000C00F1138027
:102720001CF5000F58BFBCF5000F01D48142704763
:1027300007D711F5000F58BF10F5000F15D48142CF
:102740007047894270471CF5000F04D5BCF5000F97
:10275000F7D5884270474FF0807C1CEB410F38BFA3
:102760001CEB400F01D28842704780EA010081EAE9
:10277000000180EA0100FFF7F8BE000090EA010FB7
:1027800048BF81F000413FF536AD421A04D882F0CF
:102790000042A0EB020011444FEAD0524FF07F4CB0
:1027A0001CEA410FA2EBD15318BF9CEA026F4AD03A
:1027B0004FF0004C4CEA00204CEA012121FA03FCC6
:1027C000B0EB0C0C0FD412F0FE0F36D05FEA4C00C9
:1027D0001DD5001240EBC25038BF70471CF03F0FB0
:1027E00018BF70470BE0A2F101025FEA1C2040EB2A
:1027F000C25038BF70471CF07F0F18BF7047C3F13D
:102800002003994014BF401E20F00100704780084B
:102810004FEA122308BF7047B0FA80FCA2EB0C020B
:10282000CCF1280C60FA0CF093EA122F04BF00EBF5
:10283000C25070474FEAC3707047130A5FEADC105A
:1028400008BF7047F6E79CEA026F04D010EA5C0FFD
:1028500008BF0020704710B5FFF713FF40DFF63EBA
:1028600081F0004070470000882800080000002028
:10287000BC0100006C01000800290008BC01002018
:1028800084060000C8010008A1280FDC052003DC35
:1028900005D00798086C07DC050249101AFC103AAD
:1028A000081229104FB004FC08E803100B12980816
:1028B000100B10D00710495089308960E9100910B9
:1028C00080091210CBB0044049108960A9102980FA
:1028D000E9100932903184A24A0448090102030434
:1028E000060708092AA90249365CD00708367BD0BA
:1028F0000734013F297469780500020406080000C6
:0400000508000215D8
:00000001FF
