:020000040800F2
:10000000780800202D470008450200084702000834
:100010004B0200084F0200085302000800000000D5
:10002000000000000000000000000000570200086F
:1000300059020008000000005B0200085D02000891
:100040004747000847470008474700084747000858
:100050004747000847470008474700084747000848
:100060004747000847470008474700084747000838
:100070004747000847470008474700084747000828
:100080004747000847470008474700084747000818
:100090004747000847470008474700084747000808
:1000A00047470008474700084747000847470008F8
:1000B00047470008793C0008333D000847470008DF
:1000C00047470008474700084747000847470008D8
:1000D00047470008A146000847470008AF4200080C
:1000E00047470008474700084747000847470008B8
:1000F00047470008474700084747000847470008A8
:100100004747000847470008474700084747000897
:100110004747000847470008474700084747000887
:100120004747000847470008474700084747000877
:1001300000F002F800F04DF80AA090E8000C8244AC
:100140008344AAF10107DA4501D100F042F8AFF289
:10015000090EBAE80F0013F0010F18BFFB1A43F0A5
:10016000010318470097000020970000103A24BFB1
:1001700078C878C1FAD8520724BF30C830C144BF0C
:1001800004680C607047000000230024002500264E
:10019000103A28BF78C1FBD8520728BF30C148BFEA
:1001A0000B607047662908F0B683642905F0568510
:1001B000782905F08F85002070471FB506F0C4F937
:1001C00004000020002107F0C5FAE0601FBD10B553
:1001D00010BD06F0E5FA1146FFF7EFFF00F008F852
:1001E00006F003FB03B4FFF7F2FF03BC04F0F2F9DF
:1001F0004FF4A06005F03EF804F0D2F84FF416502A
:1002000004F002FA4FF4E13004F002F803F04EFC7F
:1002100003F0A0FF00F0D3FA642004F0FEF803E03E
:100220004FF4FA7004F0F9F803F08EFA0028F7D1D1
:10023000642004F0F2F841F61F41312003F04AFD3A
:1002400000BFFEE7704700BFFEE700BFFEE700BF4C
:10025000FEE700BFFEE77047704770477047000039
:100260000CB50020019000906C48006840F480308C
:100270006A49086000BF6948006800F400300090D7
:100280000198401C0190009818B90198B0F5A06F32
:10029000F1D16248006800F4003010B101200090F4
:1002A00001E0002000900098012843D15C480068DC
:1002B00040F010005A4908600846006820F003002A
:1002C00008600846006840F0020008605348406833
:1002D000524948600846406848600846406840F413
:1002E000806048600846406820F47C1048600846FA
:1002F000406840F4E81048600846006840F08070AC
:10030000086000BF4548006800F000700028F9D080
:100310004248406820F00300404948600846406871
:1003200040F00200486000BF3C48406800F00C000C
:100330000828F9D10CBD10B5FFF792FF10BD10B51C
:100340003648006840F001003449086008464068BB
:10035000344908403149486008460068324908403D
:100360002E4908600846006820F48020086008468E
:10037000406820F4FE0048604FF41F008860FFF7DB
:10038000DAFF4FF000602949086010BD10B5002168
:1003900000200022214B5B6803F00C0121B10429ED
:1003A00006D0082928D107E0214B224C236027E002
:1003B0001F4B204C236023E0184B5B6803F4701044
:1003C000164B5B6803F48032022303EB904022B9A2
:1003D000194B4343174C23600DE0104B5B6803F44B
:1003E000003323B1144B4343124C236003E0104B02
:1003F0004343104C236003E00D4B0E4C236000BFC1
:1004000000BF064B5B68C3F303130C4CE15C094B64
:100410001B68CB40074C236010BD00000010024059
:10042000002002400000FFF8FFFFF6FE08ED00E0AC
:1004300000127A000400002000093D00080000209E
:1004400010B5022003F0C5FF10BD08B50121102032
:1004500004F0A8FC4FF44070ADF8000010208DF8B7
:10046000030003208DF8020069468D4804F0DEF990
:100470004FF440718A4804F086FA08BD10B58848E8
:10048000001D006820F00F008549091D086008461E
:10049000006840F00300086001208249086082493A
:1004A000C1F8A401FFF7CCFF00207E490860FFF7E8
:1004B000C7FF00207C49C1F8A40110BD10B57848E1
:1004C000001D006820F00F007549091D08600846EE
:1004D000006840F00300086000207249091D0860B0
:1004E0007149C1F8A001FFF7ABFF01206D49091D5B
:1004F00008606D49C1F8A001FFF7A2FF10BD10B55B
:1005000000246748001D006820F00F006449091DA1
:1005100008600846006840F0080008600120614952
:100520000860FFF78DFF01205F49C1F8A401FFF7C4
:1005300087FF07E0601CC4B2FA2C03DDFFF7BEFFA3
:10054000012010BD5748803800680028F2D1554975
:10055000091D086000BFF4E710B500205149091DCE
:1005600008604F48001D006820F00F004C49091D2D
:1005700008600846006840F00300086000204A490F
:10058000C1F8A001FFF75CFF01204649091D086082
:10059000FFF756FF00204449C1F8A40110BD10B573
:1005A00000204049091D08603D48001D006820F0FA
:1005B0000F003B49091D08600846006840F0030031
:1005C000086001203849C1F8A001FFF739FF012078
:1005D0003449091D0860FFF733FF00203249C1F894
:1005E000A40110BD70B504462D48001D006820F020
:1005F0000F002B49091D08600846006840F0030001
:10060000086000202749091D0860002512E0E00964
:10061000244908606006040E01202349C1F8A401A2
:10062000FFF70EFF00201F49091D0860FFF708FFB4
:10063000681CC5B2082DEADB70BD70B50546002404
:100640001748001D006820F00F001549091D0860BB
:100650000846006840F008000860002615E0002009
:100660001049091D0860FFF7EBFE01200E49C1F893
:10067000A4016006040E0B488038006808B1601CB5
:10068000C4B2FFF7DDFE701CC6B2082EE7DB15B959
:10069000FFF785FF01E0FFF75FFF204670BD000018
:1006A000000C0140A08121420080214270B5054626
:1006B0000C46FFF7E3FED020FFF794FFFFF71FFF84
:1006C00018B1FFF7FBFE012070BD2846FFF78AFF37
:1006D000FFF715FF2046FFF785FFFFF710FF18B162
:1006E000FFF7ECFE0120EFE7FFF7E8FE0020EBE765
:1006F00070B504460025BC2C01DB012510E0622CFE
:1007000001DB02250CE02A2C01DB032508E0142C78
:1007100001DB042504E00A2C01DB052500E00625A9
:1007200029461A20FFF7C2FF70BD70B50446B4F524
:100730007A7F01DD4FF47A74042C00DA04244FF43C
:100740007A7090FBF4F0401EC5B229461920FFF7DD
:10075000ADFF0546264604EBD671C1F34F00FFF707
:10076000C7FF70BD70B50446FFF788FED020FFF7C5
:1007700039FFFFF7C4FE2046FFF734FFFFF7BFFE47
:10078000FFF77CFED120FFF72DFFFFF7B8FE00201A
:10079000FFF753FF0546FFF791FE284670BD10B5E1
:1007A0000446E006010E1C20FFF780FF10BD10B5C7
:1007B0000446E006010E1B20FFF778FF10BD10B5C0
:1007C000FFF743FE80216B20FFF770FF642003F0EA
:1007D00024FE00216B20FFF769FF0320FFF7E7FFEE
:1007E0000020FFF7DCFF3220FFF79FFF00213820B9
:1007F000FFF75CFF00216A20FFF758FF002123204C
:10080000FFF754FF80213720FFF750FF7520FFF7D7
:10081000A9FF0446682C0BD101216B20FFF746FF8E
:1008200000216C20FFF742FF3220FFF77EFF01E03E
:10083000012010BD0020FCE72DE9F04106460F46DF
:1008400014461D46FFF71AFE002141EA4601C8B2D0
:10085000FFF7C8FEFFF753FE20B1FFF72FFE012080
:10086000BDE8F0813846FFF7BDFEFFF748FEFFF711
:1008700005FE012101EB4601C8B2FFF7B3FEFFF709
:100880003EFE0DE0012C04D10020FFF7D6FE2870BB
:1008900003E00120FFF7D1FE2870601EC4B26D1C7A
:1008A000002CEFD1FFF70AFE0020D9E72DE9F84F21
:1008B0006B46022241216820FFF7BEFF9DF8010030
:1008C0009DF8001040EA01200FFA80FA504607F028
:1008D00091F9804600224B4B07F034F806464A4A0D
:1008E0004A4B06F07FFF044606F04AFF834648491C
:1008F000584607F09DFE044607F0FEFD00B2BDE835
:10090000F88F2DE9FC4104460D4616466B4606223B
:1009100043216820FFF790FF0746BFB99DF801000B
:100920009DF8001040EA012000B220809DF80300ED
:100930009DF8021040EA012000B228809DF80500D1
:100940009DF8041040EA012000B230803846BDE82E
:10095000FC812DE9FC4104460D4616466B460622F5
:100960003B216820FFF768FF0746BFB99DF80100EB
:100970009DF8001040EA012000B220809DF803009D
:100980009DF8021040EA012000B228809DF8050081
:100990009DF8041040EA012000B230803846BDE8DE
:1009A000FC812DE9F04105460E4617469846FFF7B3
:1009B00065FD002141EA4501C8B2FFF713FEFFF7CC
:1009C0009EFD20B1FFF77AFD0120BDE8F0813046A1
:1009D000FFF708FEFFF793FD00240CE018F8040071
:1009E000FFF700FEFFF78BFD18B1FFF767FD012051
:1009F000EBE7601CC4B2BC42F0DBFFF75FFD0020F8
:100A0000E3E7000000407540A4703D0AD743424030
:100A10000000C84210B5C8234FF48062F74940F681
:100A2000F63002F09BFC10BD10B586B00446F4A071
:100A300000680390F3A000680290F3A000680190A2
:100A4000F2A00068009004F0030003A9085C8DF890
:100A5000140003A8C4F3C101405C8DF8150003A87D
:100A6000C4F38111405C8DF8160004F0030002A964
:100A7000085C8DF8100002A8C4F3C101405C8DF839
:100A8000110002A8C4F38111405C8DF8120005AA80
:100A9000032140F2264002F0E7FB18B14FF0FF308F
:100AA00006B010BD04AA032140F22A4002F0DCFB8C
:100AB00010B14FF0FF30F3E70198059000980490D3
:100AC00004F0040058B19DF8140040F001008DF8C6
:100AD00014009DF8100040F001008DF8100004F0A3
:100AE000200058B19DF8150040F001008DF8150068
:100AF0009DF8110040F001008DF8110004F48070A1
:100B000058B19DF8160040F001008DF816009DF8D0
:100B1000120040F001008DF8120005AA03214FF4E5
:100B2000886002F0A1FB10B14FF0FF30B8E704AAD3
:100B3000032140F2314002F097FB10B14FF0FF303B
:100B4000AEE7B34804810020AAE71FB50446B048C9
:100B5000007A00F0030054F820000190AC48007ABD
:100B600000F0040010B1019840420190A848007ABA
:100B7000C0F3C10054F820000290A548007A00F0AC
:100B8000200010B1029840420290A148007AC0F3C0
:100B9000811054F8200003909D48008900F4807073
:100BA00010B10398404203909A49019880FB0101DB
:100BB000800F40EA810001909649029880FB011065
:100BC000820042EA917002909249039880FB0110E2
:100BD000820042EA917003900198000E8DF80000A7
:100BE0000198000C8DF801000198000A8DF80200B0
:100BF0000198C0B28DF803006A4604214FF4747066
:100C000002F032FB18B14FF0FF3004B010BD029873
:100C1000000E8DF800000298000C8DF8010002987B
:100C2000000A8DF802000298C0B28DF803006A46EF
:100C300004214FF4757002F017FB10B14FF0FF3034
:100C4000E3E70398000E8DF800000398000C8DF880
:100C500001000398000A8DF802000398C0B28DF8D5
:100C600003006A4604214FF4767002F0FDFACCE7E7
:100C700070B588B0064601A801F0FDFCBDF804007F
:100C80000021C90341EA5045C4036148007A00F0DD
:100C9000030056F8200005905D48007A00F004003B
:100CA00010B10598404205905948007AC0F3C10040
:100CB00056F8200006905648007A00F0200010B147
:100CC0000698404206905248007AC0F3811056F8C8
:100CD000200007904E48008900F4807010B10798FA
:100CE000404207900598C117A0FB042301FB043183
:100CF00000FB0510810041EA927005900698C1172B
:100D0000A0FB042301FB043100FB0510810041EA34
:100D1000927006900798C117A0FB042301FB0431D1
:100D200000FB0510810041EA927007900598000EC3
:100D30008DF808000598000C8DF809000598000A48
:100D40008DF80A000598C0B28DF80B000698000EC9
:100D50008DF80C000698000C8DF80D000698000A1E
:100D60008DF80E000698C0B28DF80F000798000E9F
:100D70008DF810000798000C8DF811000798000AF4
:100D80008DF812000798C0B28DF8130002AA0C214A
:100D90004FF4257002F068FA08B070BD30B585B028
:100DA00004461DA207CA02AB07C3C82C03DD4FF0DF
:100DB000FF3005B030BDC82090FBF4F0401E85B276
:100DC000280A8DF80000E8B28DF801006A46022179
:100DD00040F2162002F048FA10B14FF0FF30E8E779
:100DE00002AA0C2140F6C12002F03EFA10B14FF0E9
:100DF000FF30DEE7064884810020DAE70A8A00082F
:100E00004CCD6C000CC92C00365676002646660088
:100E1000C000002009E3CA02FEF2ABC4AAF1DFDF82
:100E2000BBAFDFDF0146FC488089088000207047A7
:100E30002DE9FC4706460F4606F0070010B1B7F54E
:100E4000C86F03DD4FF0FF30BDE8FC87384607F080
:100E5000A7FB8146F14907F059FA8046684601F040
:100E60008EFB9DF80000022806D0042816D0082822
:100E700026D0102848D135E04FF08D41404607F08C
:100E8000D7FB814607F054FB84B2E549404607F0A2
:100E9000CFFB814607F04CFB85B238E04FF08C4128
:100EA000404607F0C5FB814607F042FB84B2DD49AE
:100EB000404607F0BDFB814607F03AFB85B226E0CD
:100EC0004FF08B41404607F0B3FB814607F030FB03
:100ED00084B2D549404607F0ABFB814607F028FBBA
:100EE00085B214E04FF08A41404607F0A1FB8146ED
:100EF00007F01EFB84B2CD49404607F099FB8146BE
:100F000007F016FB85B202E04FF0FF309CE700BF10
:100F100020128DF80400E0B28DF8050028128DF83B
:100F20000600E8B28DF8070006F00100A0B101AAA2
:100F300002214FF4EA7002F097F910B14FF0FF3040
:100F400082E70DF1060202214FF4927002F08CF953
:100F500010B14FF0FF3077E706F00200A0B101AA10
:100F600002214FF4EC7002F07FF910B14FF0FF3026
:100F70006AE70DF1060202214FF4947002F074F951
:100F800010B14FF0FF305FE706F00400A0B101AAF6
:100F900002214FF4EE7002F067F910B14FF0FF300C
:100FA00052E70DF1060202214FF4967002F05CF94F
:100FB00010B14FF0FF3047E7002045E738B5044651
:100FC0000020009004F0010020B19DF8000040F0E6
:100FD0003000009004F0020020B19DF8000040F0C5
:100FE0000C00009004F0040020B19DF8000040F0D7
:100FF000030000906A4601214FF4A47002F034F916
:1010000038BD38B50446012C01DA012402E0042C75
:1010100000DD0424601EC0B200906A46012140F247
:101020004F1002F021F938BD38B50446052094FB75
:10103000F0F085B228128DF80000E8B28DF80100BA
:101040006A4602214FF4EF7002F00EF938BD38B550
:101050000446052094FBF0F085B228128DF80000BC
:10106000E8B28DF801006A4602214FF4ED7002F0FB
:10107000FBF838BDF8B505460E464FF47A7095FB7F
:10108000F0F000FB06F4200E8DF80000200C8DF827
:101090000100200A8DF80200E0B28DF803006A46D4
:1010A00004214FF4AE7002F0DFF8F8BD38B5044605
:1010B000052094FBF0F084B220128DF80000E0B21D
:1010C0008DF801006A4602214FF4AD7002F0CCF8B1
:1010D00038BD38B50446052094FBF0F084B22012E8
:1010E0008DF80000E0B28DF801006A4602214FF44D
:1010F000AC7002F0B9F838BD38B5044614B94FF0F9
:10110000FF3038BD6A4604214FF4587002F0E9F808
:1011100010B14FF0FF30F4E79DF8000000069DF895
:10112000011040EA01409DF8021040EA01209DF8BC
:101130000310084320600020E3E738B50446200E82
:101140008DF80000200C8DF80100200A8DF80200B7
:10115000E0B28DF803006A4604214FF4587002F0A3
:1011600083F838BD38B5044614B94FF0FF3038BDA8
:101170006A4604214FF4717002F0B3F810B14FF0D9
:10118000FF30F4E79DF8000000069DF8011040EAEA
:1011900001409DF8021040EA01209DF80310084329
:1011A00000EB8000800020600020E0E738B50446B6
:1011B0001420B4FBF0F4200E8DF80000200C8DF804
:1011C0000100200A8DF80200E0B28DF803006A46A3
:1011D00004214FF4717002F047F838BD38B5044669
:1011E00064B120208DF8000028208DF80100302007
:1011F0008DF8020038208DF8030004E0A3220421BA
:10120000684604F05BFE6A46042140F69E2002F028
:101210002BF800F083FC38BDC000002000004843DC
:10122000000040460000C045000040450000C044AA
:1012300038B5044664B1C0208DF80000C2208DF896
:101240000100C4208DF80200C6208DF8030004E0E0
:101250008B220421684604F031FE6A46042140F6E0
:10126000982002F001F800F059FC38BD3EB5044664
:101270006CB1FDA1D1E900208968CDE9002002917F
:101280006A4609214FF4976001F0EEFF3EBDF9A2D6
:10129000D2E900109268CDE9010200916A46092165
:1012A0004FF4976001F0E0FFF0E73EB504460220FE
:1012B0008DF80000CA208DF80100E3208DF80200AF
:1012C00009208DF803006A460421682001F0CCFF54
:1012D000A3208DF8000004F0400048B1C0208DF834
:1012E0000100C8208DF80200C2208DF8030006E03E
:1012F000A3208DF801008DF802008DF8030004F49E
:10130000C07048B1C4208DF80400CC208DF80500D1
:10131000C6208DF8060006E0A3208DF804008DF8A5
:1013200005008DF80600A3208DF807008DF8080051
:101330008DF809006A460A2140F6A72001F094FFC3
:1013400004F0030018B120208DF8000002E0D8203E
:101350008DF800006A46012140F6B62001F084FFB6
:1013600004F0200018B10120FFF780FF02E0002008
:10137000FFF77CFF04F4C07008B304F4807060B120
:10138000B2208DF800008B208DF80100B6208DF87A
:1013900002009B208DF803000BE0B0208DF80000C8
:1013A00080208DF80100B4208DF8020090208DF887
:1013B00003006A46042140F6A22001F055FF04F024
:1013C000010020B3F8208DF800006A4601214FF497
:1013D0000B6001F049FFFA210720FFF729FD0720E4
:1013E000FFF7ECFD0120FFF70CFE6420FFF71CFE69
:1013F0004FF4FA70FFF72BFEC821A148FFF73AFE21
:101400002820FFF753FE0A20FFF763FE08E0D820EC
:101410008DF800006A4601214FF40B6001F024FFB3
:1014200004F0020018B1D9208DF8000002E0D820A5
:101430008DF800006A46012140F23D7001F014FF72
:1014400004F0040018B10120FFF7F2FE02E00020D2
:10145000FFF7EEFE04F0100018B10120FFF7BEFE0A
:1014600002E00020FFF7BAFE44F0080085494881F9
:1014700000F054FB00208349887304F0400018B149
:101480000846807B801D887304F4C07020B17D48BD
:10149000807B801D7B49887304F0140020B179485B
:1014A000807B10307749887304F0030020B17548C1
:1014B000807B001D7349887300203EBD0146714842
:1014C00040890880002070472DE9F0410446E0780B
:1014D00000F0C006E07800F03F05607800F0010001
:1014E00098B1EF102846E91705EB5171C910A5EB2B
:1014F000C101491C01F0FF086248006820B1614841
:10150000414602683846904700BF607800F0080006
:1015100030B15C48406818B1B0115A4A51688847E8
:101520000020BDE8F08110B586B0044656A207CA77
:1015300003AB07C357A207CA8DE80700012C09D0E7
:10154000022C0ED103AA0B2140F6822001F08CFE62
:1015500006B010BD6A460B2140F6822001F084FEE1
:10156000F6E74FF0FF30F3E72DE9F04F8DB0074677
:10157000884615469946DDE9166B00240020308028
:101580004049887B5A4605A901F0D1F918B1601E7F
:101590000DB0BDE8F08F3B48807A00F014000028C1
:1015A00061D09DF8140000069DF8151040EA014036
:1015B0009DF8161040EA01209DF817100843286096
:1015C0009DF8180000069DF8191040EA01409DF8AA
:1015D0001A1040EA01209DF81B10084368609DF82E
:1015E0001C0000069DF81D1040EA01409DF81E10E9
:1015F00040EA01209DF81F100843A8609DF82000D4
:1016000000069DF8211040EA01409DF8221040EAB2
:1016100001209DF823100843E86004F11000C4B2D3
:10162000286800140190686800140290A8680014EB
:101630000390E8680014049001984043029901FB6C
:101640000100039901FB0100049901FB010ABAF1B1
:10165000706F02DBBAF1885F22DD00F05FFA0020D4
:101660003080401E94E721E0B8AAB38DB4980D35C0
:101670005D000000B8AAAAAAB088C3C5C7000000D0
:1016800009E3CA02C0000020D8B1B9F38BA391B618
:1016900009B4D900DAB1B9F38BA391B6DAB4DA00A0
:1016A000B6F9000040F48070308000BF3448807A82
:1016B00000F0400020B305A9601C085C095D40EA09
:1016C000012000B2A8F8000005A9E01C095C05AAE9
:1016D000A01C105C41EA002000B2A8F8020005A995
:1016E000601D095C201D105C41EA002000B2A8F8D2
:1016F0000400A01DC4B2B6F9000040F0080030801C
:101700001F48408900F4C07008B305A9601C085C3C
:10171000095D40EA012000B2388005A9E01C095C9F
:1017200005AAA01C105C41EA002000B2788005A93F
:10173000601D095C201D105C41EA002000B2B880E9
:10174000A01DC4B2B6F9000040F0700030800C4813
:10175000807A00F0030018B105A90819FFF7B4FE5C
:10176000484600F048FD002012E7014604480160A9
:101770000020704701460248416000207047000089
:10178000C000002038B50446F74890F82400C0B1E6
:1017900014B10220009001E000200090F24A12688B
:1017A000D17BF14A526810786B460122FFF7F9F8B5
:1017B00010B14FF0FF3038BD9DF80010EA48417479
:1017C00023E0E948807A10B94FF0FF30F3E724B105
:1017D000E548407C08B10020EDE714B101200090FD
:1017E00001E000200090E04A1268D17BDE4A526896
:1017F00010786B460122FFF7D4F810B14FF0FF309C
:10180000D9E79DF80010D84841740020D3E738B5D7
:1018100000241FE0D4480068C07AA04204D0D24817
:101820000068407DA04200D112E0CF4949680878A5
:101830006B4601222146FEF7FFFF10B14FF0FF304B
:1018400038BD9DF800202146C8A004F0BFF900BFB4
:10185000601CC4B2C44840680079A042DADC0020B1
:10186000EEE770B504460D46BF480068C07AA04256
:1018700004D0BD480068407DA04202D14FF0FF3047
:1018800070BDB94840680079A04202DC4FF0FF30DB
:10189000F6E7B549496808782B4601222146FEF74C
:1018A000CBFFEDE738B50446AF4890F82300A042DF
:1018B00001D1002038BD14B13020009001E000209B
:1018C0000090A948807C20B19DF8000040F0020003
:1018D0000090A54890F8220020B19DF8000040F04B
:1018E00080000090A04A1268117D9F4A52681078CB
:1018F0006B460122FFF755F810B14FF0FF30D9E7E2
:10190000994880F823400020D4E738B5044604F015
:10191000700010B10120009005E014B1002000908B
:1019200001E040200090904A1268917C8E4A5268F3
:1019300010786B460122FFF734F820B100218A4865
:101940008172481E38BD9DF8000020F04001864895
:1019500001730020009004F0400020B99DF80000C1
:1019600040F00400009004F0200020B99DF8000031
:1019700040F00200009004F0100020B99DF8000033
:1019800040F00100009004F0080020B99DF800002C
:1019900040F038000090744A1268D17C724A526854
:1019A00010786B460122FEF7FCFF20B100216E4843
:1019B0008172481EC6E724B1082C02D00020FFF730
:1019C00071FF6948847200210175322002F025FD03
:1019D0000020B7E738B504466348807CA04201D1B7
:1019E000002038BD002C46D05F4A126811795E4A4B
:1019F000526810786B460122FEF71EFF10B14FF0BF
:101A0000FF30EEE79DF8000020F020000090564ADD
:101A100012681179544A526810786B460122FEF719
:101A2000C0FF10B14FF0FF30DBE7032002F0F5FC00
:101A3000022000904C4890F8220020B19DF8000050
:101A400040F080000090484890F8230020B19DF8B5
:101A5000000040F030000090434A1268117D424A75
:101A6000526810786B460122FEF79BFF002851D088
:101A70004FF0FF30B5E73C4A126811793A4A526894
:101A800010786B460122FEF7D7FE10B14FF0FF3001
:101A9000A7E73548807A00F0010028B19DF80000E2
:101AA00040F02000009004E09DF8000020F02000AD
:101AB00000902D4A126811792B4A526810786B46B3
:101AC0000122FEF76EFF10B14FF0FF3089E70320CF
:101AD00002F0A3FC244890F8220010B1802000906E
:101AE00001E000200090204890F8230020B19DF8EC
:101AF000000040F0300000901B4A1268117D1A4A25
:101B0000526810786B460122FEF74BFF10B14FF080
:101B1000FF3066E714488474002062E708B5124875
:101B2000807A10B94FF0FF3008BD002000900E4AB7
:101B30001268D17B0C4A526810786B460122FEF77E
:101B400030FF10B14FF0FF30EEE7074A12685179CD
:101B5000054A526810786B460122FEF722FF68B1F1
:101B60004FF0FF30E0E70000180000202523357813
:101B70003A20252335780D0A00000000F84A126843
:101B80001179F74A526810786B460122FEF709FF77
:101B900010B14FF0FF30C7E7F14890F8240000285B
:101BA00053D00C200090EE4A12681179EC4A52682A
:101BB00010786B460122FEF7F4FE10B14FF0FF30B3
:101BC000B2E7322002F029FCC0200090E448807A7D
:101BD00000F0010020B19DF8000040F020000090CE
:101BE000DF4A12681179DE4A526810786B4601228A
:101BF000FEF7D7FE10B14FF0FF3095E7D848407C94
:101C000010B10220009001E000200090D44A126838
:101C1000D17BD34A526810786B460122FEF7C1FE91
:101C200010B14FF0FF307FE700200090CC4A1268DF
:101C30005179CB4A526810786B460122FEF7B1FE0B
:101C4000002855D04FF0FF306EE704200090C44AC2
:101C500012681179C24A526810786B460122FEF769
:101C6000A0FE10B14FF0FF305EE7BD48807C20B988
:101C7000BB48807A00F0010010B94020009001E0DC
:101C800060200090B64A12681179B54A52681078FF
:101C90006B460122FEF785FE10B14FF0FF3043E79F
:101CA000322002F0BAFBAE48407C10B10120009017
:101CB00001E000200090AA4A1268D17BA84A52682D
:101CC00010786B460122FEF76CFE10B14FF0FF302A
:101CD0002AE7A34A12685179A14A52681078A04BAA
:101CE00010330122FEF75DFE10B14FF0FF301BE70D
:101CF000002019E770B50446002624F00104984836
:101D000090F8240008B1002070BD9548807A10B981
:101D10004FF0FF30F8E79248057C807A20409049E8
:101D200008740846007CA04202D04FF0FF3600E065
:101D3000002614B98A48007D18B10120FFF722FD62
:101D400002E00020FFF71EFD3CB1FFF7E7FE20B1E7
:101D5000834805744FF0FF30D6E73046D4E738B5F6
:101D600004467F48807A10B94FF0FF3038BDBC2C54
:101D700002DB0120009015E0622C02DB02200090C3
:101D800010E02A2C02DB032000900BE0142C02DB75
:101D90000420009006E00A2C02DB0520009001E000
:101DA000062000906E48C07A9DF80010884201D14C
:101DB0000020DBE76A4A12689178694A5268107815
:101DC0006B460122FEF7EDFD10B14FF0FF30CDE77D
:101DD0009DF800106248C1720020C7E738B504467C
:101DE000282C02DD4FF0FF3038BDDCB90020FFF7B2
:101DF00059FD00208DF8000007208DF80100584A99
:101E00001268917C564A526810786B460222FEF79F
:101E1000C8FD10B14FF0FF30E6E7002150480175D2
:101E20000020E1E70120FFF73DFD20208DF80000B4
:101E3000012C06D100208DF801000520FFF78FFF4F
:101E400017E0052C06DC01208DF801000520FFF7C6
:101E500086FF0EE0142C06DC02208DF801000A201B
:101E6000FFF77DFF05E003208DF801001420FFF748
:101E700076FF9DF80100072101EB8010C0B28DF8BC
:101E80000100374A1268917C354A526810786B46D7
:101E90000222FEF786FD10B14FF0FF30A4E70821C3
:101EA0002F48817200210173012101750020FFF785
:101EB00021FF002098E738B504462948807A10B9F8
:101EC0004FF0FF3038BD264890F8240010B14FF095
:101ED000FF30F7E72248007D50B134B1282C04DCF4
:101EE000E0B2FFF77BFF0020ECE70020FFF776FF72
:101EF000042C01DA042404E0B4F57A7F01DD4FF408
:101F00007A744FF47A7090FBF4F0401EC0B20090E7
:101F1000134A12685178124A526810786B460122AF
:101F2000FEF73FFD10B14FF0FF30CBE79DF800000A
:101F3000401C4FF47A7191FBF0F081B20848C181E6
:101F40000146C9894810FFF70AFF0020BAE738B5F3
:101F500004460348807A28B94FF0FF3038BD0000AE
:101F600018000020022C06D0042C07D0082C08D022
:101F7000102C0CD108E0002000900BE0082000900D
:101F800008E01020009005E01820009002E04FF0DB
:101F9000FF30E3E700BFF948407A9DF80010B0EB4E
:101FA000E10F01D10020D9E7F44A1268D179F34A50
:101FB000526810786B460122FEF7F3FC10B14FF027
:101FC000FF30CBE79DF80000C110EC4841720020C3
:101FD000C4E738B50446E948807A10B94FF0FF30BD
:101FE00038BDFA2C09D0B4F5FA7F09D0B4F57A7F60
:101FF00009D0B4F5FA6F0CD108E0002000900BE096
:102000000820009008E01020009005E018200090C3
:1020100002E04FF0FF30E3E700BFD848007A9DF8B8
:102020000010B0EBE10F01D10020D9E7D34A1268CC
:102030009179D24A526810786B460122FEF7B1FCC2
:1020400010B14FF0FF30CBE79DF80000C010CB4936
:1020500008720020C4E71CB580208DF80000C74A34
:102060001268917CC54A526810786B460122FEF7CF
:1020700098FC10B14FF0FF301CBD642002F0CDF988
:1020800000208DF80000BD4A1268917CBB4A52685E
:1020900010786B460122FEF784FC10B14FF0FF3040
:1020A000EAE7B64A1268917DB44A526810786B46E6
:1020B0000622FEF7C1FB10B14FF0FF30DCE79DF8C0
:1020C0000500C007400F9DF8031001F0010140EA30
:1020D00041009DF8011001F0010140EA010494B1B2
:1020E000012C03D10121A548C17431E0022C03D198
:1020F0000021A248C1742BE02146A1A003F066FD97
:102100004FF0FF30B8E79D4A1268D1789B4A526879
:1021100010786B460122FEF78FFB10B14FF0FF30B5
:10212000AAE79DF8000000F00F042CB99E4803F0C8
:102130004DFD4FF0FF309FE7042C06D19BA003F02C
:1021400045FD01218D48C17402E000218B48C17416
:10215000FF218A488172FF2088490872FF21874841
:102160004172C1724FF6FF71C181FF210174817408
:102170000121017380F82210002180F8231041759D
:1021800001751630016041608160163880F82410B6
:1021900080F82510C1844FF4FA60FFF71AFF10B1E0
:1021A0004FF0FF3068E70220FFF7D1FE10B14FF08B
:1021B000FF3061E72A20FFF7D2FD10B14FF0FF306A
:1021C0005AE73220FFF777FE10B14FF0FF3053E7A8
:1021D0000020FFF78FFD10B14FF0FF304CE70020DB
:1021E000FFF7F8FB10B14FF0FF3045E70020FFF795
:1021F0008CFB002040E770477CB504460D465F48E5
:10220000807A00F0700010B94FF0FF307CBD5B4A5F
:102210001268117B594A526810786B460622FEF705
:102220000BFB10B14FF0FF30F0E79DF801009DF877
:10223000001040EA012000B220809DF803009DF8C4
:10224000021040EA012000B260809DF805009DF870
:10225000041040EA012000B2A08015B12846FFF723
:10226000CAFF0020D2E77CB504460D464348807A79
:1022700000F0080010B94FF0FF307CBD3F4A1268F3
:10228000517B3E4A526810786B460622FEF7D4FA1C
:1022900010B14FF0FF30F0E79DF801009DF80010FD
:1022A00040EA012000B220809DF803009DF8021052
:1022B00040EA012000B260809DF805009DF80410FE
:1022C00040EA012000B2A08015B12846FFF793FF35
:1022D0000020D2E72DE9FE4F05460C462748807ABC
:1022E00018B94FF0FF30BDE8FE8F244A1268917B89
:1022F000224A5268107802AB0222FEF79DFA10B112
:102300004FF0FF30EFE79DF809009DF8081040EA14
:10231000012006B214B12046FFF76DFF1749496846
:10232000C88806F03DF9154901904968B1F90800DF
:1023300006F01EF98346304606F01AF95946009019
:1023400006F074FA8246019905F0E0FF81461F49C4
:1023500005F06EFF80464FF08F4106F069F90746A1
:1023600006F0CAF828600020BDE710B588B0044622
:102370001CB94FF0FF3008B010BD29E01800002054
:10238000556E737570706F7274656420736F6674C8
:10239000776172652070726F647563742072657600
:1023A0002025642E0A0000001498000848616C661D
:1023B0002073656E736974697669747920706172CF
:1023C0007420666F756E642E0A00000000000C42D7
:1023D000206830B9606820B9A06810B9002008B042
:1023E00010BDFA494968087806AB03221146FEF78A
:1023F00023FA10B14FF0FF30F1E79DF818000821E3
:1024000001EB201000F00F00ADF800009DF819005E
:1024100001EB201000F00F00ADF802009DF81A004B
:1024200001EB201000F00F00ADF80400206841001F
:10243000BDF90000403091FBF0F000B2ADF81000A3
:1024400060684100BDF90200403091FBF0F000B23D
:10245000ADF81200A0684100BDF90400403091FBC6
:10246000F0F000B2ADF81400D8494968087806AB1E
:1024700006221146FEF7E0F910B14FF0FF30AEE74B
:102480009DF819009DF8181040EA012000B2ADF83F
:1024900008009DF81B009DF81A1040EA012000B2C8
:1024A000ADF80A009DF81D009DF81C1040EA0120BF
:1024B00000B2ADF80C00BDF81000BDF808100844DB
:1024C00000B2ADF81000BDF81200BDF80A100844C3
:1024D00000B2ADF81200BDF81400BDF80C100844AD
:1024E00000B2ADF81400BDF81000000A8DF8180015
:1024F000BDF81000C0B28DF81900BDF81200000A36
:102500008DF81A00BDF81200C0B28DF81B00BDF89E
:102510001400000A8DF81C00BDF81400C0B28DF83C
:102520001D00AA494968087806AB06221146FEF745
:1025300038FA10B14FF0FF3051E700204FE7014665
:10254000A248007A30B1012807D0022809D0032818
:102550000FD10AE0FA2008800EE04FF4FA700880EC
:102560000AE04FF47A70088006E04FF4FA600880C1
:1025700002E00020088000BF00BF00207047014635
:102580009248407A30B1012807D0022808D00328A9
:102590000CD108E0022008700BE00420087008E06D
:1025A0000820087005E01020087002E04FF0FF30AE
:1025B000704700BF8548C07C18B108784006000EFF
:1025C00008700020F4E701468048C07A082817D236
:1025D000DFE800F01704070A0D101318BC2008806C
:1025E00013E06220088010E02A2008800DE014200B
:1025F00008800AE00A20088007E00520088004E03F
:1026000000BF00BF0020088000BF00BF002070474F
:1026100001466E4890F8240010B14FF0FF3070472B
:102620006A48C08908800020F9E701460020088038
:10263000401E704701464FF0FF3070470146634827
:10264000007A30B1012807D0022808D003280CD125
:1026500008E05F4808600BE05E48086008E05E48FC
:10266000086005E05D48086002E04FF0FF30704709
:1026700000BF0020FBE701465448407A30B10128F2
:1026800008D002280AD0032810D10BE04FF4804074
:1026900008800EE041F69C7008800AE04FF48050FC
:1026A000088006E04FF40060088002E04FF0FF3041
:1026B000704700BF4548C07C10B1088840100880B2
:1026C0000020F5E701464148007C08700020704773
:1026D00001463E48807A10B10120087001E00020D8
:1026E00008700020704738B504463848807A10B921
:1026F0004FF0FF3038BD354A1268117C334A5268BA
:1027000010786B460222FEF797F810B14FF0FF30B9
:10271000F0E79DF801009DF8001040EA012000B2AA
:1027200020800020E6E72DE9FE4F074688469246C6
:102730001D46DDF830B000260024244890F824001F
:1027400010B1601EBDE8FE8F002028701F48807AFF
:1027500010B94FF0FF30F5E71C48007C10B94FF07E
:10276000FF30EFE71948007C00F0400008B1B01CD2
:10277000C6B21648007C00F0200008B1B01CC6B2FA
:102780001248007C00F0100008B1B01CC6B20F481F
:10279000007C00F0080008B1B01DC6B20B4A1268F8
:1027A000917A0A4A526810786B460222FEF744F882
:1027B00010B14FF0FF30C5E79DF801009DF8001003
:1027C00040EA0129B1450BDA0020BBE718000020E0
:1027D0000000034300008342333303423333834119
:1027E000FC4840684088B9EB600F17DDF94A126871
:1027F000517CF84A526810786B460122FEF71CF8AB
:1028000010B14FF0FF309DE79DF8000000F0100080
:1028100020B1FFF783F96FF0010093E75046FFF70F
:10282000EAFCEC4A1268D17AEA4A526810786B46A0
:102830003246FEF701F810B14FF0FF3082E799FB06
:10284000F6F0401E8BF8000000202870B4422AD019
:10285000E048007C00F0080028B3601C1DF8000070
:102860001DF8041040EA012000B2A8F80000E01CA6
:102870001DF80010A01C1DF8000041EA002000B265
:10288000A8F80200601D1DF80010201D1DF80000B2
:1028900041EA002000B2A8F80400287840F00800BF
:1028A0002870A01D84B2B44213D0CA48007C00F046
:1028B000400070B1601C1DF800001DF8041040EAD3
:1028C000012000B23880287840F040002870A01C19
:1028D00084B2B44213D0BF48007C00F0200070B135
:1028E000601C1DF800001DF8041040EA012000B231
:1028F0007880287840F020002870A01C84B2B44270
:1029000013D0B448007C00F0100070B1601C1DF8BA
:1029100000001DF8041040EA012000B2B8802878B9
:1029200040F010002870A01C84B200200AE7F8B51F
:1029300004460F461646A74890F8240010B94FF0F9
:10294000FF30F8BDA348807A10B94FF0FF30F8E7A8
:10295000A04A1268917A9F4A526810786B46022208
:10296000FDF76AFF10B14FF0FF30EAE79DF8010074
:102970009DF8001040EA0125A54203DA00203070DE
:10298000401EDEE7934840684088B5EB600F17DDD6
:10299000904A1268517C8F4A526810786B46012227
:1029A000FDF74AFF10B14FF0FF30CAE79DF8000075
:1029B00000F0100020B1FFF7B1F86FF00100C0E7A0
:1029C000E2B2844B1B68D97A824B5B6818783B462D
:1029D000FDF732FF10B14FF0FF30B2E795FBF4F096
:1029E000401E30700020ACE701467A4880F8221083
:1029F000002070477CB5054676494968087801ABE8
:102A000004220D21FDF718FF08B107207CBD9DF8B9
:102A10000700C0F301109DF8041001F0E00140EA46
:102A2000E1008DF800009DF80700C0F381009DF8DB
:102A3000051001F0E00140EAE1008DF801009DF889
:102A4000070000F003009DF8061001F0E00140EAE5
:102A5000E1008DF8020000241CE01DF8040018B904
:102A6000002045F8240013E05B4845F8240006E008
:102A700055F82400594905F0DBFD45F824001DF800
:102A80000400401EC0B20DF804000028F0D100BFC1
:102A9000601CC4B2032CE0DB0020B7E72DE9FE4F39
:102AA00006460F4600256846FFF7A4FF002442E0D3
:102AB00056F8240057F82410A0EB010ABAF1000FD1
:102AC00001DB514601E0CAF10001084605F050FD66
:102AD00083464FF08F4105F019FC80465DF82400D5
:102AE000002105F0D5FC16D05DF82410404605F015
:102AF0000DFC82464FF07E5105F098FE814629F08C
:102B0000004A3748416A504605F05EFE12D2012065
:102B1000A04005430EE03248C169404605F054FD2F
:102B200005D32F48016A404605F04EFE02D201202F
:102B3000A0400543641C032CBADB2846BDE8FE8F89
:102B40002DE9FC5F06460F460025224949680878B2
:102B500001AB03220D21FDF76FFE10B10720BDE888
:102B6000FC9F9DF8040000F01F008DF804009DF804
:102B7000050000F01F008DF805009DF8060000F02C
:102B80001F008DF80600002462E056F8240057F874
:102B90002410A0EB010BBBF1000F01DB594601E053
:102BA000CBF10001084605F0E3FC4FF08F410090A7
:102BB00005F0ACFB814601A8005DC0B30849086878
:102BC00005F0EEFC83465946064805F09FFB80461B
:102BD0000FE00000180000207B14AE3E1D5A843F19
:102BE0002896000800B04C45FE49404605F020FDFF
:102BF000804601A8005D401EC0B201A9085500280A
:102C0000F2D14146484605F081FB83464FF07E51A4
:102C100005F00CFE82462AF0004BF34881695846C5
:102C200005F0D2FD13D20120A04005430FE0FFE7DD
:102C3000ED480169484605F0C7FC05D3EA484169FB
:102C4000484605F0C1FD02D20120A0400543641CA6
:102C5000032C9ADB284682E72DE9F04F87B0054622
:102C60000C46914601208DF8100000208DF81100CF
:102C7000DE4A1268917CDD4A5268107804AB022269
:102C8000FDF78FFE20B14FF0FF3007B0BDE8F08FA9
:102C9000C82001F0C2FB00208DF81000D34A126852
:102CA000D17BD24A5268107804AB0122FDF779FE3D
:102CB00010B14FF0FF30E8E7CC4A12685179CB4AA7
:102CC0005268107804AB0122FDF76BFE10B14FF093
:102CD000FF30DAE7C54A1268917CC44A526810781E
:102CE00004AB0122FDF75DFE10B14FF0FF30CCE7E1
:102CF000BE4A1268D17DBD4A5268107804AB0122E9
:102D0000FDF74FFE10B14FF0FF30BEE7B74A126833
:102D10001179B64A5268107804AB0122FDF741FEE2
:102D200010B14FF0FF30B0E70C208DF81000AF4A23
:102D300012681179AD4A5268107804AB0122FDF790
:102D400030FE10B14FF0FF309FE70F2001F065FB20
:102D5000A648806A407A8DF81000A44A12689178DB
:102D6000A24A5268107804AB0122FDF71AFE10B196
:102D70004FF0FF3089E79D48806A007A8DF8100097
:102D80009A4A12685178994A5268107804AB012225
:102D9000FDF707FE10B14FF0FF3076E7B9F1000FF5
:102DA00007D09248806A807A40F0E0008DF81000E9
:102DB00004E08E48806A807A8DF810008B4A126891
:102DC00091798A4A5268107804AB0122FDF7E9FD37
:102DD00010B14FF0FF3058E7B9F1000F07D083482A
:102DE000806AC07A40F0E0008DF8100003E07E4871
:102DF000C07A8DF810007D4A1268D1797B4A5268FA
:102E0000107804AB0122FDF7CCFD10B14FF0FF307C
:102E10003BE7B9F1000F02D0C82001F0FEFA4020D4
:102E20008DF81000714A12681179704A5268107852
:102E300004AB0122FDF7B5FD10B14FF0FF3024E7E0
:102E400078208DF81000694A12685179674A5268F3
:102E5000107804AB0122FDF7A4FD10B14FF0FF3054
:102E600013E76149888901F0D8FA00208DF8100035
:102E70005E4A126851795D4A5268107804AB0122AB
:102E8000FDF78FFD10B14FF0FF30FEE6574A126894
:102E9000917A564A5268107804AB0222FDF7CCFCB6
:102EA00010B14FF0FF30F0E69DF811009DF81010C2
:102EB00040EA012B0C209BFBF0F0C6B20020A8607A
:102EC00068602860A06060602060824665E0474AD4
:102ED0001268D17A454A5268107804AB0C22FDF78B
:102EE000ABFC10B14FF0FF30CFE69DF811009DF81C
:102EF000101040EA012000B2ADF808009DF8130060
:102F00009DF8121040EA012000B2ADF80A009DF8C9
:102F100015009DF8141040EA012000B2ADF80C0035
:102F2000BDF90810206808442060BDF90A106068E7
:102F300008446060BDF90C10A0680844A0609DF8CA
:102F400017009DF8161040EA012000B2ADF800000D
:102F50009DF819009DF8181040EA012000B2ADF864
:102F600002009DF81B009DF81A1040EA012000B2F3
:102F7000ADF80400BDF90010286808442860BDF9C8
:102F80000210686808446860BDF90410A868084425
:102F9000A8600AF1010000F0FF0AB24597DB124871
:102FA000D0F800C02868C117090441EA104107049D
:102FB00062460023384602F0E4FD32460023CDE9A4
:102FC000020102F0DEFD28600748D0F800C0686802
:102FD000C117090441EA104107046246002338463C
:102FE00006E0000054E3853F289600081800002002
:102FF00002F0C7FD32460023CDE9020102F0C1FD17
:103000006860FE48D0F800C0A868C117090441EA0A
:103010001041070462460023384602F0B2FD3246F2
:103020000023CDE9020102F0ACFDA860F348D0F81E
:1030300004C02168C817000440EA11480F04624622
:1030400000233846414602F09CFD32460023CDE97C
:10305000020102F096FD2060E848D0F804C06068E4
:10306000C117090441EA10410704624600233846AB
:1030700002F087FD32460023CDE9020102F081FD16
:103080006060DE48D0F804C0A068C117090441EAB6
:103090001041070462460023384602F072FD3246B2
:1030A0000023CDE9020102F06CFDA060A0680028B9
:1030B00004DDA068A0F58030A06003E0A06800F502
:1030C0008030A0600020E0E538B50446CC4890F898
:1030D0002400A04201D1002038BD24B3C84890F894
:1030E000250010B94FF0FF30F6E70020FEF74AFB4D
:1030F0000020FEF76FFCC249C88CFEF7DCFE002002
:103100000090BF49496808786B4601222321FDF7EA
:1031100048FC0121BA4880F824100120FEF732FB58
:10312000FEF7FCFC13E00020FEF72CFBB448007C0B
:103130000090B349496808786B4601222321FDF7C6
:1031400030FC0021AE4880F82410FEF7E7FC002098
:10315000C2E72DE9F04F8DB083460F4602200C9058
:10316000A74890F8240020B10020FFF7ADFF01260A
:1031700000E0002603A8FFF7E2F905A8FFF7FFF932
:1031800001A8FFF720FA02A8FFF742FA9C4890F83E
:103190000AA004A8FFF796FA002407E000223946A7
:1031A0005846FFF759FD00B902E0641C022CF5DB1C
:1031B00000BF022C01D1002528E0002407E00122F5
:1031C00006A909A8FFF748FD00B902E0641C022C1B
:1031D000F5DB00BF022C01D1002517E006A9384617
:1031E000FFF75CFC00F0FF0809A95846FFF7A8FCB0
:1031F00000F0FF090025B9F1000F01D145F00105EC
:10320000B8F1000F01D145F0020500BFFF207C4955
:103210000872FF217A484172C1724FF6FF71C18175
:10322000FF218172017401210173BDF80C00FEF7CA
:10323000D0FE9DF81400FEF78AFEBDF80400FEF7EC
:103240008EFDBDF80800FEF736FE5046FEF75DFB2A
:103250009DF81000FEF74EFD16B10120FFF734FF78
:1032600028460DB0BDE8F08FF8B504460D46164669
:1032700016B94FF0FF30F8BD6148807A10B94FF0B1
:10328000FF30F8E720128DF80000E0B28DF8010061
:103290009DF8010028445A4949684989884202DD5D
:1032A0004FF0FF30E7E7564A1268117E544A5268E1
:1032B00010786B460222FDF774FB10B14FF0FF301F
:1032C000D9E7EAB24E4B1B68597D4D4B5B681878C5
:1032D0003346FDF766FB10B14FF0FF30CBE700201F
:1032E000C9E7F8B504460D46164616B94FF0FF304B
:1032F000F8BD4348807A10B94FF0FF30F8E720124C
:103300008DF80000E0B28DF801009DF8010028441E
:103310003B4949684989884202DD4FF0FF30E7E7C1
:10332000374A1268117E364A526810786B4602227C
:10333000FDF737FB10B14FF0FF30D9E7EAB2304B61
:103340001B68597D2E4B5B6818783346FDF774FA7D
:1033500010B14FF0FF30CBE70020C9E72DE9F04373
:1033600085B005460E4690469946254890F82500BA
:1033700020B14FF0FF3005B0BDE8F08316B94FF033
:10338000FF30F8E7002423E0281B102801DD10207F
:1033900000E0281B87B2321939462046FFF764FF48
:1033A00010B14FF0FF30E6E701AA39462046FFF79B
:1033B00098FF10B14FF0FF30DDE730193A4601A910
:1033C00002F050FD10B16FF00100D4E7E01984B2B3
:1033D000AC42D9DB4FEA28208DF8000008F0FF004E
:1033E0008DF80100064A1268917E054A52681078ED
:1033F0006B460222FDF7D5FA38B103E028960008A3
:10340000180000204FF0FF30B5E70121FC4880F89C
:103410002510A0F826900020ADE70146F84890F866
:1034200024000870002070474FF0FF3070470246BC
:103430004FF0FF30704701464FF0FF307047F8B54E
:1034400005460F461446002C70D0B5F5FF5F01DD30
:10345000FF2605E0202D01DA012601E0C5F347161D
:1034600007B90127282C02DD4FF0FF30F8BDE448F2
:10347000407D28BBE24890F8240038B10020FFF7D7
:1034800023FE0121DE4880F8201003E00021DC4803
:1034900080F82010DA481630FFF751F8D848183075
:1034A000FFF76DF8D6481A30FFF78DF8D4481C3076
:1034B000FFF7AEF8D248817A81771F30FFF702F923
:1034C0000020FEF75FF90020FEF788FC00208DF851
:1034D0000000CB4A12689178C94A526810786B464E
:1034E0000122FDF75EFA10B14FF0FF30BEE7402039
:1034F0008DF80000C24A1268D17BC14A5268107828
:103500006B460122FDF74DFA00B165E08DF80060D1
:103510008DF80170BA4A1268117AB94A5268107867
:103520006B460222FDF73DFA08B155E047E0052061
:1035300000F073FFB248407A072101EBC000C0B22F
:103540008DF80000AE4A1268D179AD4A5268107801
:103550006B460122FDF725FA00B13DE020208DF8F1
:103560000000012C03D100208DF801000EE0052C95
:1035700003DC01208DF8010008E0142C03DC02209C
:103580008DF8010002E003208DF801009DF8010094
:10359000072101EB8010C0B28DF80100984A126833
:1035A000917C974A526810786B460222FDF7F9F930
:1035B00000B111E0012192484175002056E7904A80
:1035C0001632002103E0505C00B105E0491C0C29D3
:1035D000F9D34FF0FF3049E7FF2089490872FF21F6
:1035E00087484172C1724FF6FF71C181FF2181721C
:1035F0000174012101730146887FFEF786F9804935
:10360000C88AFEF7E6FC7E49087EFEF7A0FC7C49EE
:10361000488BFEF7A4FB7A49888BFEF74CFC78496F
:10362000C87FFEF767FB764890F8200010B10120B4
:10363000FFF74AFD002172484175002016E770B57A
:1036400088B002A905A8FFF784FD0446032C3ED1EB
:1036500001A8FEF7F3FF059804F08AFF06460199DA
:1036600004F0E6FF054604F047FF0590069804F0D5
:103670007FFF0646019904F0DBFF054604F03CFF9E
:103680000690079804F074FF0646019904F0D0FFF5
:10369000054604F031FF079005A8FDF756FA684685
:1036A000FEF7E9FFBDF80010029848430290BDF80C
:1036B0000010039848430390BDF800100498484355
:1036C000049002A8FDF7D4FA002008B070BD0120D4
:1036D000FBE7014691F90020002A01DD00201EE0F1
:1036E00091F90020002A01DA042018E091F9012064
:1036F000002A01DD012012E091F90120002A01DAFF
:1037000005200CE091F90220002A01DD022006E0EC
:1037100091F90220002A01DA062000E00720704714
:1037200010B504462046FFF7D4FF0346E01CFFF720
:10373000D0FF43EAC00083B2A01DFFF7CAFF43EAEF
:10374000801083B2184610BD70B50024FCF77DFED2
:10375000FEF781FC002840D17820FEF7D6F8C4B2ED
:103760000CB1012070BD7820FEF7C4FAC4B20CB1D0
:103770000220F7E76420FEF79EFBC4B20CB10320E1
:10378000F0E7FDF747F9C4B20CB10420EAE71D48A1
:10379000FFF7C6FF0546FDF747F9C4B20CB1052097
:1037A000E0E740F27310FDF780FDC4B20CB10620D3
:1037B000D8E76420FDF7F2FAC4B20CB10720D1E7D4
:1037C000FFF73DFF04460CB10820CBE70120FFF7CF
:1037D0007BFCC4B21CB10920C4E70A20C2E7002068
:1037E000C0E770B50024FCF730FEFEF734FC00287B
:1037F00044D17820FEF789F8C4B22CB1012070BD05
:1038000018000020440000207820FEF773FAC4B2AC
:103810000CB10220F3E76420FEF74DFBC4B20CB1FB
:103820000320ECE7FDF7F6F8C4B20CB10420E6E79C
:103830009C48FFF775FF0546FDF7F6F8C4B20CB1DA
:103840000520DCE740F27310FDF72FFDC4B20CB188
:103850000620D4E76420FDF7A1FAC4B20CB107201A
:10386000CDE7FFF7ECFE04460CB10820C7E70120C6
:10387000FFF72AFCC4B21CB10920C0E70A20BEE74A
:103880000020BCE72DE9F04F99B004460D461646DE
:103890004FF07E574FF000084FF000094FF0000A3C
:1038A00012A813A918AB0EAACDE9001014A916A8E6
:1038B000FDF75AFE18B1012019B0BDE8F08FBDF830
:1038C0004C0000F4807000287ED00E9804F050FE6A
:1038D00083464FF09D4104F019FD07460F9804F010
:1038E00047FE83464FF09D4104F010FD804610983E
:1038F00004F03EFE83464FF09D4104F007FD8146F3
:10390000119804F035FE83464FF09D4104F0FEFC13
:10391000824639464FF0804004F08AFE49460590C1
:1039200004F086FE414607904FF0404004F080FED0
:103930005146059004F07CFE0690079904F078FC4F
:10394000834604F049FCCDE9080103F0D5FB4FF0B4
:103950006632554BCDE90A0104F064F9CDE90C015A
:1039600003F00EFF206049464FF0804004F060FEF7
:103970004946029004F05CFE414604904FF04040FE
:1039800004F056FE4146029004F052FE0390049962
:1039900004F04CFF83464FF07E5104F049FC059043
:1039A00004F01AFCCDE9080139464FF0804004F0DC
:1039B0003FFE4146039004F03BFE494604904FF021
:1039C000804004F035FE00E068E05146039004F0CA
:1039D0002FFE8346049904F02BFC059004F0FCFBB9
:1039E000CDE90601DDE9082303F0CEFD4FF0663294
:1039F0002D4BCDE90A0104F015F9CDE90C0103F0D6
:103A0000BFFE28605146504604F012FE494604901D
:103A1000484604F00DFE41460390404604F008FE7F
:103A200039460190384604F003FE0090019904F0F5
:103A3000FFFB0290039904F0F9FE8346049904F019
:103A4000F5FE059004F0C8FBCDE908015146384663
:103A500004F0EEFD49460490404604F0E9FD039071
:103A6000049904F0E5FB4FF08041059004F0E0FD7F
:103A7000834604F0B1FBCDE90601DDE9082303F03C
:103A800083FD4FF06632084BCDE90A0104F0CAF815
:103A9000CDE90C0103F074FE306001E002200BE779
:103AA000002009E74400002066A64C4000B591B014
:103AB00001214FF4057001F075F90121084601F06C
:103AC00064F94FF4004001F0D1F80220ADF82C0069
:103AD00000208DF82F000BA9624800F0A7FE0120FE
:103AE000ADF82C0000208DF82F000BA95E4800F0E7
:103AF0009DFE5E4801F054FE5D4800905D480190D7
:103B00000020029002200390002004908020059065
:103B10004000069080000790202008900002099045
:103B200000200A906946514801F0DCFE01214F480F
:103B300001F003FF4E484C3801F00AFC00200C90C5
:103B400001208DF834008DF835004FF460200E9080
:103B500000200F9002208DF840000CA944484C38FA
:103B600001F01DFC05230122114641484C3801F0AB
:103B7000AEFC052302220A213D484C3801F0A7FC87
:103B800001213B484C3801F041FC012138484C38B8
:103B900001F031FC36484C3801F04FFC00BF34488E
:103BA0004C3801F04FFC0028F9D131484C3801F075
:103BB00053FC00BF2E484C3801F053FC0028F9D1CB
:103BC00001212B484C3801F056FC11B000BD0146D4
:103BD000012902D12748008870470A2902D12548C7
:103BE0004088F9E70020F7E72DE9F04399B08146D6
:103BF0000D464FF00008002409E04846FFF7E7FFB4
:103C00004DF82400052000F008FC601CC4B2AC4252
:103C1000F3DB002411E000260AE05DF82670701C3A
:103C20005DF820004DF82600701C4DF82070C6B2DB
:103C3000681EB042F1DC601CC4B2681EA042EADC1F
:103C4000052404E05DF824008044601CC4B2681FB1
:103C5000A042F7DC401FB8FBF0F080B219B0BDE81D
:103C6000F0830000000801400010014008000240FD
:103C70004C2401404E000020EC480088EB480088AE
:103C800020F00100E9490880704770B505460C46F0
:103C9000E748C06940F00200E549C861E3481C30CC
:103CA0000580001F0480E148001F008840F00100EB
:103CB000DE49091F0880DD481038008840F0010007
:103CC000DA491039088002231D220321012000F067
:103CD000E9FB70BD70B505460C46D548C06940F09B
:103CE0000400D349C861D3480580001F0480D1482F
:103CF0002038008840F00100CE4920390880CD48A6
:103D00002C38008840F00100CA492C390880022371
:103D10001E220021084600F0C5FB70BD70B50446A8
:103D2000049D601AEE1A7043561A90FBF6F0184480
:103D300070BD2DE9F84FBF481C38008800F0010025
:103D400000287DD0BC4ABD49BD48FFF79BFD002837
:103D500076D119210120FFF747FFBA4908600846CC
:103D6000006804F005FC0546B74904F061FC044610
:103D70004FF08B4104F0CAFAB44908600846016864
:103D8000B14804F0C3FA824604F026FA064600223F
:103D9000AF4B04F037F904460022AE4B03F042FF6C
:103DA000804603F0EDFCAC4908600846006804F06A
:103DB000A3FB05465A2000234AF24F4247F2A111C5
:103DC00000902846FFF7AAFF044604F0D1FBA34960
:103DD00008600846006804F0FFF9044622460B46D6
:103DE0009FA001F0F3FE9D48006804F0A1FBA149EB
:103DF0004870A1499048006804F01AFA054604F09A
:103E000097FB84B22146002001F07DFE8A480068BD
:103E100004F0E2F9044622460B4698A001F0D6FED3
:103E200019210A20FFF7E0FE044604F0B9FB964989
:103E300008600846006804F0CFF90446224600E016
:103E4000E9E00B4691A001F0C1FE8F48016892485D
:103E500004F0BAFB01D2012000E00020782802DA49
:103E60008D488949086084498748006804F0E0F972
:103E7000064671480168304604F0DAF9054686497D
:103E800004F0D4FC044604F053FB844908808448C1
:103E9000018884A001F09AFE77496948006804F01F
:103EA000C7F9044604F044FB83490880724963481B
:103EB000006804F0BDF9044604F03AFB7F4908802D
:103EC00076480088764908807B490988A1F1B400CA
:103ED00004F04EFB7A49086078490988A1F1B400E2
:103EE00004F046FB774908606D490988A1F1B400E8
:103EF00004F03EFB744908605148006804F06CF916
:103F0000044622460B4671A1754801F06BFE7448C9
:103F100000F008FAFF2000F01BFA4848006804F09F
:103F20005BF9044622460B466EA16D4801F05AFE2D
:103F30006B4800F0F7F9FF2000F00AFA3E480068ED
:103F400004F04AF9044622460B466BA1644801F08E
:103F500049FE634800F0E6F9FF2000F0F9F95848FF
:103F6000006804F039F9044622460B4667A16C4804
:103F700001F038FE6A4800F0D5F9FF2000F0E8F9BA
:103F80005048006804F028F9044622460B4665A113
:103F9000634801F027FE624800F0C4F9FF2000F0FA
:103FA000D7F94948006804F017F9044622460B4641
:103FB00061A15B4801F016FE594800F0B3F9FF20FB
:103FC00000F0C6F93C480088000A2A4988703A483F
:103FD0000078C87039480088000A087137480078AE
:103FE00048712F480088000A88712D480078C871F0
:103FF0000020574908700AE01E49554A1278885C2B
:1040000000F0F7FA52480078401C514908705048B7
:1040100000780928F0DB07481C38008820F00100F0
:1040200004491C390880BDE8F88F000010040040E6
:10403000001002402C080040600000205C000020BE
:104040005800002088000020333353408C000020AB
:104050000000F03F006AF84090000020940000202B
:1040600042656E643A2566646567726565730D0A1C
:10407000000000007000002000003443C9E8D6C3EF
:104080003A25660D0A000000840000206164637810
:1040900031303A25660D0A000000B44200000020CD
:1040A0007E00002062616C616E63655F7961773AC2
:1040B00025640D0A000000007A0000207C0000202A
:1040C00064000020680000206C00002070616765BB
:1040D000312E74352E7478743D22252E31662200DF
:1040E000D000002070616765312E74362E747874AC
:1040F0003D22252E3166220070616765312E7437AE
:104100002E7478743D22252E316622007061676519
:10411000312E74382E7478743D22252E316622009B
:104120001001002070616765312E74392E74787427
:104130003D22252E3166220070616765312E743173
:10414000302E7478743D22252E3166220000000046
:104150008000002000B585B00121042000F022FE7F
:104160000121480700F02BFE1020ADF810000020C0
:104170008DF8130003208DF8120004A9214800F0E7
:1041800055FB10211F4800F0FEFB0020009001901D
:104190000290022003906946002001F036FC0121C4
:1041A000002001F04FFC0021084601F0ACFC05B0F6
:1041B00000BD2DE9F0470446204604F0F1F98146A0
:1041C0001149484604F0A2F881464FF08B41484619
:1041D00004F02EFA824603F0FFFF07464FF06632E6
:1041E0000A4B03F0AFFB054603F0CAFA8146484686
:1041F00004F09EF985B22946002001F084FCBDE858
:10420000F08700000008014000007A4466660A401A
:1042100010B586B004460121082000F0C3FD01213D
:10422000880400F0CCFD4FF48060ADF8140003204A
:104230008DF8160018208DF8170005A9504800F0D9
:10424000F5FA4FF40060ADF8140004208DF8170063
:1042500005A94B4800F0EAFA27208DF8000003205A
:104260008DF801008DF8020001208DF803006846EA
:1042700001F005F801940020ADF80800ADF80A003F
:10428000ADF80C00ADF810000C20ADF80E0001A93F
:104290003C4800F02EFE012240F22551394800F042
:1042A000C0FE0121374800F0B0FE06B010BD10B5C9
:1042B00040F22551334800F099FF00B3314800F037
:1042C00015FFC4B2012C03D101202F49087028E04A
:1042D000022C03D101202D49087022E0032C03D1C8
:1042E0000020294908701CE0042C03D10020284933
:1042F000087016E0052C03D101202549087010E054
:10430000102C03D10120234908700AE0112C03D19D
:1043100001202149087004E0122C02D101201F491C
:10432000087010BD70B50446002510E0605D68B1EE
:10433000615D144800F0D6FE00BF8021114800F0F6
:104340003FFF0028F9D0681CC5B200E070BDEDE762
:1043500070B5044600250FE05CB12146094800F025
:10436000C1FE00BF8021074800F02AFF0028F9D0D5
:1043700000E070BD681CC5B2032DEDDB00BFF8E79F
:10438000000C0140004800409800002099000020E7
:104390009A0000209B0000209C0000209D0000202F
:1043A00010B56FF0040000F0B4FF2E4800682E49ED
:1043B000B0FBF1F02D4908700846007800EB400191
:1043C000C1EBC0104FF6FF7101EAC0002849088018
:1043D00010BD0146254A12784A434FF0E0235A6146
:1043E00000229A611A46126942F001021A6100BF66
:1043F0004FF0E022106900F001021AB100F480329F
:10440000002AF5D04FF0E022126922F001024FF0AD
:10441000E0231A6100229A6170470146144A12880B
:104420004A434FF0E0235A6100229A611A4612690A
:1044300042F001021A6100BF4FF0E022106900F063
:1044400001021AB100F48032002AF5D04FF0E022C8
:10445000126922F001024FF0E0231A6100229A61F2
:10446000704700000400002000127A00A000002025
:10447000A2000020504A0A400243504B1A60704785
:104480000146072323EA010212024C4B1B1D186848
:104490004FF6FF0318404A4B18431043474B1B1D70
:1044A000186070472DE9F0410746884614461D46BE
:1044B0002846FFF7E5FFC5F1040007FA00F60F20D4
:1044C000284100EA0800064306F00F06E21704EB55
:1044D000D2625211920002F1E022D2F8002121466C
:1044E000E31704EBD3635B11A4EB431C012303FA32
:1044F0000CF31A432046E31704EBD3635B119B00D4
:1045000003F1E023C3F800212E48005D40EA0610C5
:104510002C490855BDE8F08170B504460B46CE170E
:1045200001EB9676C6F38700CE1701EB9676B610B0
:10453000A1EB8606B606350E234B9B6943F00103BB
:10454000214EB3614FEAB63353F820300F26AE4008
:10455000B3431E4E46F82030334653F8203004FA59
:1045600005F61E43194B43F82060194B1B680126C2
:104570008E403343164E336002F0010343B1144BB7
:104580000C331B6801268E403343114E0C363360CA
:1045900002F0020343B10E4B08331E6801238B4027
:1045A0001E430B4B08331E6070BD30BF704772B6A0
:1045B000704762B67047000080FFFF1F08ED00E003
:1045C0000000FA0500E400E000100240080001408D
:1045D00000040140014600BF704700BF4F4A1288E7
:1045E00002F04002002AF9D0C2B24C4B1B1D1A80C7
:1045F000704700BF4949098801F040010029F9D0FE
:104600004649091D0880704710B586B0044601214F
:1046100044F2040000F0C6FB4FF40070ADF8140043
:1046200003208DF8160018208DF8170005A93C48C6
:1046300000F0FCF84FF48060ADF8140004208DF811
:10464000170005A9364800F0F1F825208DF8000084
:1046500003208DF801008DF8020001208DF8030081
:10466000684600F00CFE01940020ADF80800ADF89B
:104670000A00ADF80C00ADF810000C20ADF80E00EB
:1046800001A9264800F035FC012240F225512348BB
:1046900000F0C7FC0121214800F0B7FC06B010BDB6
:1046A00010B540F225511D4800F0A0FD10B31B4885
:1046B00000F01CFDC4B21B48008800F40040C8B9DB
:1046C0001848008800F4804060B10A2C03D0002014
:1046D0001449088020E01348008840F40040114944
:1046E000088019E00D2C06D10E48008840F4804067
:1046F0000C49088010E00B480088C0F30D000A49FF
:104700000C5408480088401C064908800846008868
:10471000C72801DD0020088010BD000000380140DE
:1047200000080140A80000205001002009488047EF
:1047300009480047FEE7FEE7FEE7FEE7FEE7FEE783
:10474000FEE7FEE7FEE7FEE704480549054A064B9B
:10475000704700003F030008310100087802002084
:1047600078080020780400207804002010B5044662
:10477000CC48844208D10121042000F02DFB002107
:10478000042000F029FB46E0C748844208D10121FB
:10479000082000F021FB0021082000F01DFB3AE07A
:1047A000C248844208D10121102000F015FB0021ED
:1047B000102000F011FB2EE0BD48844208D10121F9
:1047C000202000F009FB0021202000F005FB22E062
:1047D000B848844208D10121402000F0FDFA0021B0
:1047E000402000F0F9FA16E0B348844208D10121D4
:1047F000802000F0F1FA0021802000F0EDFA0AE0BC
:10480000AE48844207D10121801500F0E5FA00216D
:10481000A01500F0E1FA10BD10B50121084600F026
:10482000DBFA0021012000F0D7FA10BD2DE9F0419C
:10483000024600250026002000230024002791F8CE
:1048400003C00CF00F0591F803C00CF0100CBCF184
:10485000000F03D091F802C04CEA050591F800C0A2
:10486000BCF1000F31D0146800202BE04FF0010C98
:104870000CFA00F3B1F800C00CEA03069E4220D106
:1048800083004FF00F0C0CFA03F7BC4305FA03FC4E
:104890004CEA040491F803C0BCF1280F06D14FF094
:1048A000010C0CFA00FCC2F814C00AE091F803C035
:1048B000BCF1480F05D14FF0010C0CFA00FCC2F816
:1048C00010C0401C0828D1D31460B1F800C0BCF15E
:1048D000FF0F34DD546800202EE000F1080C4FF08B
:1048E000010808FA0CF3B1F800C00CEA03069E4276
:1048F00021D183004FF00F0C0CFA03F7BC4305FAEB
:1049000003FC4CEA040491F803C0BCF1280F05D164
:1049100000F1080C08FA0CF8C2F8148091F803C0F2
:10492000BCF1480F07D100F1080C4FF0010808FA5C
:104930000CF8C2F81080401C0828CED35460BDE8A3
:10494000F0814FF6FF710180022181700421C17056
:1049500070470246002093680B400BB1012000E035
:10496000002070470146886880B2704702460020E8
:10497000D3680B400BB1012000E0002070470146D6
:10498000C86880B2704701617047416170470AB1E1
:10499000016100E041617047C16070474FF48032AF
:1049A0000A4382618161826182698269704702463D
:1049B0000020434B18684FF68073184040EA0210FD
:1049C00008433F4B186070473E49C8617047F0B5D7
:1049D0000A46002300240021002500F00046B6F11D
:1049E000004F02D1364EF16901E0354E7168C0F3D7
:1049F000034583B200F44016B6F5401F08D121F0FC
:104A000070612F4E766826F070662D4F7E6012E042
:104A100000F48016B6F5801F06D1032606FA05F4C9
:104A2000A14341F0706106E0460D360103FA06F637
:104A3000B14341F0706122B1460D360103FA06F62A
:104A4000314300F00046B6F1004F02D11C4EF16137
:104A500001E01B4E7160F0BD30B500228B071C0FCA
:104A60000F2303FA04F2164B08338C1053F824304A
:104A70009343134C08348D1044F8253023468C1092
:104A800053F824308C07240F00FA04F423430C4C11
:104A900008348D1044F8253030BD0A49DC310860F7
:104AA0007047000000080140000C01400010014068
:104AB0000014014000180140001C0140002001408A
:104AC0000000014000002042DF48006840F0010083
:104AD000DD49086008464068DC490840DA4948601A
:104AE00008460068DA490840D74908600846006867
:104AF00020F4802008600846406820F4FE004860EA
:104B00004FF41F0088607047CF49096821F4803155
:104B1000CD4A11601146096821F480211160B0F579
:104B2000803F03D0B0F5802F0ED106E0C64909685A
:104B300041F48031C44A116007E0C349096841F477
:104B4000A021C14A116000E000BF00BF704710B54E
:104B500001460022002300204A11012A02D1BA4C4A
:104B6000236806E0022A02D1B74C236A01E0B64C62
:104B7000636A01F01F02012494401C400CB1012023
:104B800000E0002010BD38B5002000900024002572
:104B900000BF3120FFF7DBFF05460098401C009066
:104BA0000098B0F5A06F01D0002DF2D03120FFF7B2
:104BB000CEFF08B1012400E00024204638BD0146A4
:104BC0000020A14A106820F0F80040EAC1001060FF
:104BD0007047A04908607047024600209A4B586809
:104BE00020F47C1042EA01031843974B5860704749
:104BF00098490866704701460020934A506820F0A3
:104C000003000843506070478F48406800F00C0074
:104C10007047014600208C4A506820F0F00008439D
:104C20005060704701460020874A506820F4E060D9
:104C300008435060704701460020834A506820F4C2
:104C4000605040EAC1005060704729B17E4A527AF4
:104C500002437D4B5A7204E07B4A527A82437A4B7C
:104C60005A7270477B49D83108607047014600206E
:104C7000754A506820F44040084350607047002156
:104C8000714A20321170704A82F82010012802D037
:104C900004280AD104E001216B4A2032117005E09A
:104CA0000521694A2032117000E000BF00BF704743
:104CB0006949086070476449096A0143624A1162A0
:104CC0007047654944390860704730B500210022BB
:104CD000002400235C4D6D6805F00C0121B104290E
:104CE00005D0082923D105E05C4D056022E05B4D2D
:104CF00005601FE0544D6D6805F47012524D6D68EB
:104D000005F48034022505EB92421CB9544D5543FD
:104D100005600BE04C4D6D6805F400351DB1504D3C
:104D20005543056002E04D4D5543056002E04B4D93
:104D3000056000BF00BF444D6D6805F0F001090932
:104D4000484D6B5C0568DD4045603F4D6D6805F47E
:104D5000E061090A434D6B5C4568DD4085603A4D72
:104D60006D6805F46051C90A3E4D6B5C4568DD40D5
:104D7000C560354D6D6805F44041890B3A4D6B5C5B
:104D8000C568B5FBF3F5056130BD29B12E4A5269FE
:104D900002432D4B5A6104E02B4A526982432A4B4D
:104DA0005A61704729B1284A92690243264B9A6199
:104DB00004E0254A92698243234B9A61704729B1E6
:104DC000214AD2690243204BDA6104E01E4AD269CB
:104DD00082431D4BDA61704729B11B4AD2680243F6
:104DE000194BDA6004E0184AD2688243164BDA6045
:104DF000704729B1144A12690243134B1A6104E047
:104E0000114A12698243104B1A61704712494039A6
:104E1000086070470F49C86470470B49C8717047F4
:104E20000948406A40F0807007494862704701466F
:104E30000020054A92680A400AB1012000E00020E3
:104E40007047014988727047001002400000FFF867
:104E5000FFFFF6FE000042428004424200127A0048
:104E600000093D00AA000020BA00002010B5044649
:104E7000FB48844209D101218803FFF7ADFF0021DF
:104E80004FF48040FFF7A8FF32E0F648844209D192
:104E900001214804FFF7ADFF00214FF40030FFF778
:104EA000A8FF25E0F048844209D101218804FFF7DA
:104EB000A0FF00214FF48020FFF79BFF18E0EB4894
:104EC000844209D10121C804FFF793FF00214FF468
:104ED0000020FFF78EFF0BE0E548844208D1012156
:104EE0000805FFF786FF00214FF48010FFF781FFD0
:104EF00010BD2DE9F04786B005460E460024A246B7
:104F000000BFA1460027B08900B100BF2F462C8A00
:104F10004CF6FF700440F08804432C82AC894EF6B6
:104F2000F3100440B0883189084371890843044371
:104F3000AC81AC8A4FF6FF400440B0890443AC8298
:104F400001A8FFF7C2FEC648874202D1DDF810A0D3
:104F500001E0DDF80CA0A88900F4004040B10AEBA4
:104F6000CA0000EB0A1031684900B0FBF1F807E015
:104F70000AEBCA0000EB0A1031688900B0FBF1F8B7
:104F80006420B8FBF0F004012009642101FB1089C2
:104F9000A88900F4004040B1322000EBC900B0FB0A
:104FA000F1F000F00700044308E0322000EB0910A4
:104FB0006421B0FBF1F000F00F0004432C8106B037
:104FC000BDE8F0874FF41651016000218180C18057
:104FD00001810C21418100218181704710B5024679
:104FE0000020108A4FF2FF0318400B884C8823439F
:104FF0008C882343CC8823431843108210BD0021A2
:10500000018041808180C180704721B1828942F452
:105010000052828104E082894DF6FF731A4082813A
:105020007047F0B50346002400260025002040F616
:105030006A17B94200D100BF1846C1F3421401F00B
:105040001F06012707FA06F5012C01D10C3004E0F8
:10505000022C01D1103000E014301AB107682F4340
:10506000076002E00768AF430760F0BD1AB1838AAA
:105070000B43838202E0838A8B4383827047028AD8
:105080004FF6F0731A400282028A0A430282704786
:1050900082894FF2FF731A40828182890A4382819A
:1050A000704721B1828942F00202828104E0828944
:1050B0004FF6FD731A4082817047028A4FF6DF7304
:1050C0001A400282028A0A430282704721B1028A90
:1050D00042F48042028204E0028A4BF6FF731A40D7
:1050E00002827047C1F308028280704701468888B7
:1050F000C0F308007047818941F001018181704748
:10510000028BD2B20283028B42EA012202837047F1
:10511000028B02F47F420283028B0A4302837047B0
:1051200021B1828A42F02002828204E0828A4FF614
:10513000DF731A408282704721B1828A42F01002E6
:10514000828204E0828A4FF6EF731A4082827047AF
:1051500021B1828A42F00802828204E0828A4FF6FC
:10516000F7731A408282704721B1828942F400426B
:10517000828103E08289C2F30E028281704721B1ED
:10518000828A42F40062828204E0828A4FF2FF73D4
:105190001A4082827047828A4FF6FB731A408282DD
:1051A000828A0A438282704721B1828A42F00202D7
:1051B000828204E0828A4FF6FD731A408282704731
:1051C00002460020B1F5007F00D100BF13880B40DC
:1051D0000BB1012000E00020704701F40072B2F52D
:1051E000007F00D100BFCA430280704770B50246FD
:1051F000002400230025002040F66A16B14200D1A9
:1052000000BFC1F3421501F01F03012606FA03F3A4
:10521000012D02D19689334006E0022D02D1168A73
:10522000334001E0968A33400C12012606FA04F45A
:105230001688344013B10CB1012000E0002070BD8D
:1052400010B50022002340F66A14A14200D100BF2D
:105250000A1201249440A3B2DC43048010BD000074
:10526000003801400044004000480040004C00402D
:105270000050004031490143314A1160704770B518
:10528000002100230F22C47804B32D4C246804F4B9
:10529000E064C4F5E064210AC1F10403CA40447823
:1052A00004FA03F18478144021430901254C06785F
:1052B000A155047804F01F050124AC4005786D1158
:1052C000AD0005F1E025C5F8004109E0047804F0DF
:1052D0001F050124AC401C4D0678761145F8264088
:1052E00070BD1A4A0A400243154B1B1F1A607047D3
:1052F00039B1134A121D12680243114B1B1D1A606B
:1053000006E00F4A121D126882430D4B1B1D1A60E6
:105310007047042808D14FF0E021096941F00401E9
:105320004FF0E022116107E04FF0E021096921F020
:1053300004014FF0E0221161704700000000FA05FF
:105340000CED00E000E400E080E100E080FFFF1FE2
:1053500010B50446FA48844208D101214015FFF7F0
:105360003BFD00216015FFF737FD17E0F54884424B
:1053700008D101210015FFF72FFD00212015FFF7AF
:105380002BFD0BE0F048844208D10121C803FFF750
:1053900023FD00214FF40040FFF71EFD10BD30B586
:1053A0000246002000235068E84C20400D790C682C
:1053B00044EA0524204350609068E54C2040D1E940
:1053C00002542C434D7944EA450420439060D06A4E
:1053D00020F470000C7C641EE4B2234340EA0350C6
:1053E000D06230BD00210160017141718160C160F6
:1053F00001210174704721B1826842F0010282608C
:1054000003E0826822F001028260704721B1826865
:1054100042F48072826003E0826822F480728260CB
:10542000704710B50023CBB21AB144681C434460E6
:1054300002E044689C43446010BD816841F008016B
:1054400081607047014600208A6802F008020AB1B4
:10545000012000E000207047816841F00401816074
:105460007047014600208A6802F004020AB1012058
:1054700000E00020704721B1826842F4A0028260FF
:1054800003E0826822F4A002826070470146002097
:105490008A6802F480020AB1012000E0002070470F
:1054A00010B50A4600210023416821F46041531ED3
:1054B00041EA4331416010BD21B1426842F40062CB
:1054C000426003E0426822F4006242607047F0B537
:1054D00004460D4600200021092D11DDE068A5F1EC
:1054E0000A0606EB4607072606FA07F18843A5F1E8
:1054F0000A0606EB460603FA06F10843E0600CE0F4
:10550000206905EB4507072606FA07F1884305EBF6
:10551000450603FA06F108432061072A0FDA606B9B
:10552000561E06EB86071F2606FA07F18843561E0D
:1055300006EB860605FA06F10843606322E00D2AB1
:105540000FDA206BD61F06EB86071F2606FA07F137
:105550008843D61F06EB860605FA06F1084320634A
:1055600010E0E06AA2F10D0606EB86071F2606FA98
:1055700007F18843A2F10D0606EB860605FA06F14F
:105580000843E062F0BD21B1826842F4801282607B
:1055900003E0826822F48012826070470146C86C82
:1055A00080B2704766484C300068704721B142684D
:1055B00042F48062426003E0426822F4806242600A
:1055C000704721B1426842F48052426003E0426871
:1055D00022F48052426070470A460021816821F41B
:1055E000E04111438160704721B1826842F400427A
:1055F000826003E0826822F400428260704721B139
:10560000826842F40212826003E0826822F402128D
:1056100082607047014600208A6802F400120AB1D5
:10562000012000E000207047F0B504461546002038
:1056300000220026092911DDE068A1F10A0707EB25
:10564000470C072707FA0CF29043A1F10A0707EB72
:10565000470703FA07F21043E0600CE0206901EB12
:10566000410C072707FA0CF2904301EB410703FABC
:1056700007F210432061A06BC0F30156EF1C06F146
:10568000010CA7EB0C0707EB870C1F2707FA0CF29E
:105690009043EF1C06F1010CA7EB0C0707EB870703
:1056A00001FA07F21043A063F0BD10B50A460021CD
:1056B0000023816B21F44011531E41EA03518163A1
:1056C00010BD08B5002300930090009B0B4400938D
:1056D000009B1A6008BD08B50246002000900092A9
:1056E00001F12800009B184400900098006880B2E7
:1056F00008BD0A4600214168164B1940114341601C
:1057000070474162826270470A460021416821F079
:105710001F0111434160704740B1094908310968D0
:1057200041F40001064A0832116007E004490831DB
:10573000096821F40001024A083211607047000034
:105740000024014000280140003C0140FFFEF0FF22
:10575000FDF7F1FFFFFD3FFF0246002013680B40FD
:105760000BB1012000E000207047CA43026070477F
:1057700070B502460020002300240B125568CEB2FB
:1057800005EA060415681D4015B10CB1012000E0C2
:10579000002070BD00220A12D3430360704700004E
:1057A00001684FF6FE721140016000210160416006
:1057B0008160C1608D49884208D18C4908394968A7
:1057C00041F00F01894A083A51608AE08749143153
:1057D000884208D185490839496841F0F001834A77
:1057E000083A51607DE081492831884208D17F49DB
:1057F0000839496841F470617C4A083A516070E0A8
:105800007A493C31884208D178490839496841F4DD
:105810007041764A083A516063E0744950318842D9
:1058200008D172490839496841F470216F4A083A31
:10583000516056E06D496431884208D16B4908399E
:10584000496841F47001694A083A516049E0674982
:105850007831884208D165490839496841F070615A
:10586000624A083A51603CE06149884206D1011F12
:10587000096841F00F01021F116032E05C491431E8
:10588000884208D15A49091F096841F0F001584A75
:10589000121F116025E056492831884208D1544929
:1058A000091F096841F47061514A121F116018E024
:1058B0004F493C31884208D14D49091F096841F4DC
:1058C00070414B4A121F11600BE049495031884228
:1058D00007D14749091F096841F47021444A121F42
:1058E0001160704710B50022026847F6F0739A43C2
:1058F0000C6A8B6823430C6923434C6923438C69EE
:105900002343CC6923434C6A23438C6A23431A43C1
:105910000260CB6843600B6883604B68C36010BD56
:105920000021016041608160C1600161416181616C
:10593000C161016241628162704721B1026842F037
:105940000102026004E002684FF6FE731A40026032
:1059500070471AB103680B43036002E003688B438E
:1059600003607047416070470146486880B27047E5
:1059700001460020002201F080531BB11C4B083B64
:105980001A6802E0194B083B1A6802EA01030BB1DE
:10599000012000E00020704700F0805119B1144947
:1059A000091F086002E01149083948607047014644
:1059B0000020002201F080531BB10D4B083B1A68F8
:1059C00002E00A4B083B1A6802EA01030BB101200E
:1059D00000E00020704700F0805119B10449091F10
:1059E000086002E001490839486070470800024039
:1059F0000804024010B501214807FFF7FAF9002119
:105A00004FF00050FFF7F5F910BD30B5002200232C
:105A10005A4C226840F6FE748440A243D1E9004506
:105A20002C438D682C43CD6844EA050303FA00F447
:105A30002243524C226030BD0021016041608160F0
:105A4000C160704739B14D4A1268012383401A433F
:105A50004A4B1A6006E0494A1268012383409A4380
:105A6000464B1A60704741B1444A12684FF4805364
:105A700083401A43414B1A6007E0404A12684FF4D2
:105A8000805383409A433D4B1A60704710B551B123
:105A90003A4A121D126804090123A3401A43374BE6
:105AA0001B1D1A6009E0354A121D12680409012302
:105AB000A3409A43314B1B1D1A6010BD40B12F49C2
:105AC000091D096841F003012C4A121D116007E00D
:105AD0002A49091D096821F00301284A121D116095
